{
  "contractName": "ASTREA",
  "abi": [
    {
      "inputs": [
        {
          "internalType": "uint256",
          "name": "initialSupply",
          "type": "uint256"
        },
        {
          "internalType": "address",
          "name": "_twitterXAddress",
          "type": "address"
        }
      ],
      "stateMutability": "nonpayable",
      "type": "constructor"
    },
    {
      "inputs": [],
      "name": "DECISION_THRESHOLD",
      "outputs": [
        {
          "internalType": "uint256",
          "name": "",
          "type": "uint256"
        }
      ],
      "stateMutability": "view",
      "type": "function",
      "constant": true
    },
    {
      "inputs": [],
      "name": "MAX_VOTING_STAKE",
      "outputs": [
        {
          "internalType": "uint256",
          "name": "",
          "type": "uint256"
        }
      ],
      "stateMutability": "view",
      "type": "function",
      "constant": true
    },
    {
      "inputs": [],
      "name": "MIN_CERTIFYING_STAKE",
      "outputs": [
        {
          "internalType": "uint256",
          "name": "",
          "type": "uint256"
        }
      ],
      "stateMutability": "view",
      "type": "function",
      "constant": true
    },
    {
      "inputs": [
        {
          "internalType": "uint256",
          "name": "",
          "type": "uint256"
        }
      ],
      "name": "playerAddresses",
      "outputs": [
        {
          "internalType": "address",
          "name": "",
          "type": "address"
        }
      ],
      "stateMutability": "view",
      "type": "function",
      "constant": true
    },
    {
      "inputs": [
        {
          "internalType": "uint256",
          "name": "",
          "type": "uint256"
        }
      ],
      "name": "propositions",
      "outputs": [
        {
          "internalType": "string",
          "name": "tweetURL",
          "type": "string"
        },
        {
          "internalType": "string",
          "name": "content",
          "type": "string"
        },
        {
          "internalType": "address",
          "name": "author",
          "type": "address"
        },
        {
          "internalType": "bool",
          "name": "decided",
          "type": "bool"
        },
        {
          "internalType": "enum ASTREA.Outcomes",
          "name": "trueOutcome",
          "type": "uint8"
        },
        {
          "internalType": "uint256",
          "name": "bountyAmount",
          "type": "uint256"
        },
        {
          "internalType": "uint256",
          "name": "rewardPool",
          "type": "uint256"
        }
      ],
      "stateMutability": "view",
      "type": "function",
      "constant": true
    },
    {
      "inputs": [],
      "name": "twitterXContract",
      "outputs": [
        {
          "internalType": "contract TwitterX",
          "name": "",
          "type": "address"
        }
      ],
      "stateMutability": "view",
      "type": "function",
      "constant": true
    },
    {
      "inputs": [
        {
          "internalType": "address",
          "name": "_twitterXAddress",
          "type": "address"
        }
      ],
      "name": "setTwitterXAddress",
      "outputs": [],
      "stateMutability": "nonpayable",
      "type": "function"
    },
    {
      "inputs": [
        {
          "internalType": "uint256",
          "name": "_amount",
          "type": "uint256"
        }
      ],
      "name": "getKarmaToken",
      "outputs": [],
      "stateMutability": "nonpayable",
      "type": "function"
    },
    {
      "inputs": [
        {
          "internalType": "uint256",
          "name": "_tweetId",
          "type": "uint256"
        },
        {
          "internalType": "uint256",
          "name": "_bountyAmount",
          "type": "uint256"
        },
        {
          "internalType": "uint256",
          "name": "_rewardPool",
          "type": "uint256"
        }
      ],
      "name": "addProposition",
      "outputs": [],
      "stateMutability": "nonpayable",
      "type": "function"
    },
    {
      "inputs": [],
      "name": "getRandomProposition",
      "outputs": [
        {
          "internalType": "uint256",
          "name": "",
          "type": "uint256"
        }
      ],
      "stateMutability": "view",
      "type": "function",
      "constant": true
    },
    {
      "inputs": [
        {
          "internalType": "address",
          "name": "_playerAddress",
          "type": "address"
        }
      ],
      "name": "addPlayer",
      "outputs": [],
      "stateMutability": "nonpayable",
      "type": "function"
    },
    {
      "inputs": [
        {
          "internalType": "address",
          "name": "playerAddress",
          "type": "address"
        },
        {
          "internalType": "uint256",
          "name": "propositionIndex",
          "type": "uint256"
        }
      ],
      "name": "getPlayerVotingStakes",
      "outputs": [
        {
          "internalType": "uint256[]",
          "name": "",
          "type": "uint256[]"
        }
      ],
      "stateMutability": "view",
      "type": "function",
      "constant": true
    },
    {
      "inputs": [
        {
          "internalType": "address",
          "name": "playerAddress",
          "type": "address"
        },
        {
          "internalType": "uint256",
          "name": "propositionIndex",
          "type": "uint256"
        }
      ],
      "name": "getPlayerCertifyingStakes",
      "outputs": [
        {
          "internalType": "uint256[]",
          "name": "",
          "type": "uint256[]"
        }
      ],
      "stateMutability": "view",
      "type": "function",
      "constant": true
    },
    {
      "inputs": [
        {
          "internalType": "uint256",
          "name": "_propositionIndex",
          "type": "uint256"
        },
        {
          "internalType": "bool",
          "name": "_vote",
          "type": "bool"
        },
        {
          "internalType": "uint256",
          "name": "_stake",
          "type": "uint256"
        }
      ],
      "name": "voteOnProposition",
      "outputs": [],
      "stateMutability": "nonpayable",
      "type": "function"
    },
    {
      "inputs": [
        {
          "internalType": "uint256",
          "name": "_propositionIndex",
          "type": "uint256"
        },
        {
          "internalType": "bool",
          "name": "_certification",
          "type": "bool"
        },
        {
          "internalType": "uint256",
          "name": "_stake",
          "type": "uint256"
        }
      ],
      "name": "certifyProposition",
      "outputs": [],
      "stateMutability": "nonpayable",
      "type": "function"
    }
  ],
  "bytecode": "0x60806040523480156200001157600080fd5b5060405162004e6238038062004e62833981810160405281019062000037919062000134565b816040516200004690620000f8565b620000529190620001c8565b604051809103906000f0801580156200006f573d6000803e3d6000fd5b506000806101000a81548173ffffffffffffffffffffffffffffffffffffffff021916908373ffffffffffffffffffffffffffffffffffffffff16021790555080600160006101000a81548173ffffffffffffffffffffffffffffffffffffffff021916908373ffffffffffffffffffffffffffffffffffffffff160217905550505062000292565b611d6880620030fa83390190565b60008151905062000117816200025e565b92915050565b6000815190506200012e8162000278565b92915050565b600080604083850312156200014857600080fd5b600062000158858286016200011d565b92505060206200016b8582860162000106565b9150509250929050565b600062000184600a836200020f565b91507f4b61726d61546f6b656e000000000000000000000000000000000000000000006000830152602082019050919050565b620001c28162000254565b82525050565b60006060820190508181036000830152620001e38162000175565b90508181036020830152620001f88162000175565b9050620002096040830184620001b7565b92915050565b600082825260208201905092915050565b60006200022d8262000234565b9050919050565b600073ffffffffffffffffffffffffffffffffffffffff82169050919050565b6000819050919050565b620002698162000220565b81146200027557600080fd5b50565b620002838162000254565b81146200028f57600080fd5b50565b612e5880620002a26000396000f3fe608060405234801561001057600080fd5b50600436106100f55760003560e01c806388cac48c11610097578063b27183d211610066578063b27183d214610274578063c941c2dc146102aa578063ff1360d6146102c6578063ff27643c146102e2576100f5565b806388cac48c146101ec57806394e1e0fb1461020a578063b0750ac51461023a578063b1275f9a14610258576100f5565b80633ca350f3116100d35780633ca350f3146101765780634787b82f1461019457806352d11af3146101b057806375437a58146101ce576100f5565b80630895111a146100fa57806315c6aee21461012a5780632ddf9d5f1461015a575b600080fd5b610114600480360381019061010f9190612247565b6102fe565b60405161012191906127ae565b60405180910390f35b610144600480360381019061013f91906122d7565b6104dd565b604051610151919061276a565b60405180910390f35b610174600480360381019061016f91906122d7565b61051c565b005b61017e6105ac565b60405161018b9190612928565b60405180910390f35b6101ae60048036038101906101a99190612378565b6105b1565b005b6101b8610702565b6040516101c59190612928565b60405180910390f35b6101d6610759565b6040516101e39190612928565b60405180910390f35b6101f461075e565b6040516102019190612928565b60405180910390f35b610224600480360381019061021f9190612247565b610763565b60405161023191906127ae565b60405180910390f35b610242610942565b60405161024f91906127d0565b60405180910390f35b610272600480360381019061026d919061221e565b610968565b005b61028e600480360381019061028991906122d7565b610a17565b6040516102a197969594939291906127eb565b60405180910390f35b6102c460048036038101906102bf9190612329565b610bb3565b005b6102e060048036038101906102db9190612329565b6111eb565b005b6102fc60048036038101906102f7919061221e565b61158f565b005b60606000600267ffffffffffffffff811115610343577f4e487b7100000000000000000000000000000000000000000000000000000000600052604160045260246000fd5b6040519080825280602002602001820160405280156103715781602001602082028036833780820191505090505b509050600460008573ffffffffffffffffffffffffffffffffffffffff1673ffffffffffffffffffffffffffffffffffffffff1681526020019081526020016000206000016000848152602001908152602001600020600060011515151581526020019081526020016000205481600081518110610418577f4e487b7100000000000000000000000000000000000000000000000000000000600052603260045260246000fd5b602002602001018181525050600460008573ffffffffffffffffffffffffffffffffffffffff1673ffffffffffffffffffffffffffffffffffffffff168152602001908152602001600020600001600084815260200190815260200160002060008015151515815260200190815260200160002054816001815181106104c7577f4e487b7100000000000000000000000000000000000000000000000000000000600052603260045260246000fd5b6020026020010181815250508091505092915050565b600381815481106104ed57600080fd5b906000526020600020016000915054906101000a900473ffffffffffffffffffffffffffffffffffffffff1681565b60008054906101000a900473ffffffffffffffffffffffffffffffffffffffff1673ffffffffffffffffffffffffffffffffffffffff166340c10f1933836040518363ffffffff1660e01b8152600401610577929190612785565b600060405180830381600087803b15801561059157600080fd5b505af11580156105a5573d6000803e3d6000fd5b5050505050565b600a81565b600080600160009054906101000a900473ffffffffffffffffffffffffffffffffffffffff1673ffffffffffffffffffffffffffffffffffffffff1663c3ad5ecb866040518263ffffffff1660e01b815260040161060f9190612928565b60006040518083038186803b15801561062757600080fd5b505afa15801561063b573d6000803e3d6000fd5b505050506040513d6000823e3d601f19601f820116820180604052508101906106649190612283565b91509150600060026001816001815401808255809150500390600052602060002090600802019050828160010190805190602001906106a49291906120aa565b50818160020160006101000a81548173ffffffffffffffffffffffffffffffffffffffff021916908373ffffffffffffffffffffffffffffffffffffffff160217905550848160060181905550838160070181905550505050505050565b600080600280549050423360014361071a9190612ada565b4060405160200161072d9392919061272d565b6040516020818303038152906040528051906020012060001c6107509190612c8f565b90508091505090565b600a81565b603281565b60606000600267ffffffffffffffff8111156107a8577f4e487b7100000000000000000000000000000000000000000000000000000000600052604160045260246000fd5b6040519080825280602002602001820160405280156107d65781602001602082028036833780820191505090505b509050600460008573ffffffffffffffffffffffffffffffffffffffff1673ffffffffffffffffffffffffffffffffffffffff168152602001908152602001600020600101600084815260200190815260200160002060006001151515158152602001908152602001600020548160008151811061087d577f4e487b7100000000000000000000000000000000000000000000000000000000600052603260045260246000fd5b602002602001018181525050600460008573ffffffffffffffffffffffffffffffffffffffff1673ffffffffffffffffffffffffffffffffffffffff1681526020019081526020016000206001016000848152602001908152602001600020600080151515158152602001908152602001600020548160018151811061092c577f4e487b7100000000000000000000000000000000000000000000000000000000600052603260045260246000fd5b6020026020010181815250508091505092915050565b600160009054906101000a900473ffffffffffffffffffffffffffffffffffffffff1681565b610971816115d3565b156109b1576040517f08c379a00000000000000000000000000000000000000000000000000000000081526004016109a8906128c8565b60405180910390fd5b6003819080600181540180825580915050600190039060005260206000200160009091909190916101000a81548173ffffffffffffffffffffffffffffffffffffffff021916908373ffffffffffffffffffffffffffffffffffffffff16021790555050565b60028181548110610a2757600080fd5b9060005260206000209060080201600091509050806000018054610a4a90612bdc565b80601f0160208091040260200160405190810160405280929190818152602001828054610a7690612bdc565b8015610ac35780601f10610a9857610100808354040283529160200191610ac3565b820191906000526020600020905b815481529060010190602001808311610aa657829003601f168201915b505050505090806001018054610ad890612bdc565b80601f0160208091040260200160405190810160405280929190818152602001828054610b0490612bdc565b8015610b515780601f10610b2657610100808354040283529160200191610b51565b820191906000526020600020905b815481529060010190602001808311610b3457829003601f168201915b5050505050908060020160009054906101000a900473ffffffffffffffffffffffffffffffffffffffff16908060050160009054906101000a900460ff16908060050160019054906101000a900460ff16908060060154908060070154905087565b610bbc336115d3565b610bfb576040517f08c379a0000000000000000000000000000000000000000000000000000000008152600401610bf2906128e8565b60405180910390fd5b60008054906101000a900473ffffffffffffffffffffffffffffffffffffffff1673ffffffffffffffffffffffffffffffffffffffff166370a08231336040518263ffffffff1660e01b8152600401610c54919061276a565b60206040518083038186803b158015610c6c57600080fd5b505afa158015610c80573d6000803e3d6000fd5b505050506040513d601f19601f82011682018060405250810190610ca49190612300565b811115610ce6576040517f08c379a0000000000000000000000000000000000000000000000000000000008152600401610cdd906128a8565b60405180910390fd5b600a811115610d2a576040517f08c379a0000000000000000000000000000000000000000000000000000000008152600401610d2190612868565b60405180910390fd5b60028381548110610d64577f4e487b7100000000000000000000000000000000000000000000000000000000600052603260045260246000fd5b906000526020600020906008020160050160009054906101000a900460ff1615610dc3576040517f08c379a0000000000000000000000000000000000000000000000000000000008152600401610dba90612908565b60405180910390fd5b60008054906101000a900473ffffffffffffffffffffffffffffffffffffffff1673ffffffffffffffffffffffffffffffffffffffff16639dc29fac33836040518363ffffffff1660e01b8152600401610e1e929190612785565b600060405180830381600087803b158015610e3857600080fd5b505af1158015610e4c573d6000803e3d6000fd5b505050506000600460003373ffffffffffffffffffffffffffffffffffffffff1673ffffffffffffffffffffffffffffffffffffffff1681526020019081526020016000209050600060028581548110610ecf577f4e487b7100000000000000000000000000000000000000000000000000000000600052603260045260246000fd5b9060005260206000209060080201905082816003016000861515151581526020019081526020016000206000828254610f0891906129f9565b92505081905550828260000160008781526020019081526020016000206000861515151581526020019081526020016000206000828254610f4991906129f9565b925050819055506032816003016000600115151515815260200190815260200160002054101580610f9457506032816003016000801515151581526020019081526020016000205410155b156111e45760018160050160006101000a81548160ff021916908315150217905550806003016000801515151581526020019081526020016000205481600301600060011515151581526020019081526020016000205411801561102a57508060040160008015151515815260200190815260200160002054816004016000600115151515815260200190815260200160002054115b156110875760008160050160016101000a81548160ff0219169083600281111561107d577f4e487b7100000000000000000000000000000000000000000000000000000000600052602160045260246000fd5b02179055506111ad565b80600301600060011515151581526020019081526020016000205481600301600080151515158152602001908152602001600020541180156110fb57508060040160006001151515158152602001908152602001600020548160040160008015151515815260200190815260200160002054115b156111585760018160050160016101000a81548160ff0219169083600281111561114e577f4e487b7100000000000000000000000000000000000000000000000000000000600052602160045260246000fd5b02179055506111ac565b60028160050160016101000a81548160ff021916908360028111156111a6577f4e487b7100000000000000000000000000000000000000000000000000000000600052602160045260246000fd5b02179055505b5b6111c8858260050160019054906101000a900460ff166116a8565b6111e3858260050160019054906101000a900460ff16611bb8565b5b5050505050565b6111f4336115d3565b611233576040517f08c379a000000000000000000000000000000000000000000000000000000000815260040161122a906128e8565b60405180910390fd5b60008054906101000a900473ffffffffffffffffffffffffffffffffffffffff1673ffffffffffffffffffffffffffffffffffffffff166370a08231336040518263ffffffff1660e01b815260040161128c919061276a565b60206040518083038186803b1580156112a457600080fd5b505afa1580156112b8573d6000803e3d6000fd5b505050506040513d601f19601f820116820180604052508101906112dc9190612300565b81111561131e576040517f08c379a0000000000000000000000000000000000000000000000000000000008152600401611315906128a8565b60405180910390fd5b600a811015611362576040517f08c379a000000000000000000000000000000000000000000000000000000000815260040161135990612888565b60405180910390fd5b6002838154811061139c577f4e487b7100000000000000000000000000000000000000000000000000000000600052603260045260246000fd5b906000526020600020906008020160050160009054906101000a900460ff16156113fb576040517f08c379a00000000000000000000000000000000000000000000000000000000081526004016113f290612908565b60405180910390fd5b60008054906101000a900473ffffffffffffffffffffffffffffffffffffffff1673ffffffffffffffffffffffffffffffffffffffff16639dc29fac33836040518363ffffffff1660e01b8152600401611456929190612785565b600060405180830381600087803b15801561147057600080fd5b505af1158015611484573d6000803e3d6000fd5b505050506000600460003373ffffffffffffffffffffffffffffffffffffffff1673ffffffffffffffffffffffffffffffffffffffff1681526020019081526020016000209050600060028581548110611507577f4e487b7100000000000000000000000000000000000000000000000000000000600052603260045260246000fd5b906000526020600020906008020190508281600401600086151515158152602001908152602001600020600082825461154091906129f9565b9250508190555082826001016000878152602001908152602001600020600086151515158152602001908152602001600020600082825461158191906129f9565b925050819055505050505050565b80600160006101000a81548173ffffffffffffffffffffffffffffffffffffffff021916908373ffffffffffffffffffffffffffffffffffffffff16021790555050565b600080600090505b60038054905081101561169d578273ffffffffffffffffffffffffffffffffffffffff1660038281548110611639577f4e487b7100000000000000000000000000000000000000000000000000000000600052603260045260246000fd5b9060005260206000200160009054906101000a900473ffffffffffffffffffffffffffffffffffffffff1673ffffffffffffffffffffffffffffffffffffffff16141561168a5760019150506116a3565b808061169590612c0e565b9150506115db565b50600090505b919050565b6000600283815481106116e4577f4e487b7100000000000000000000000000000000000000000000000000000000600052603260045260246000fd5b90600052602060002090600802019050600080600281111561172f577f4e487b7100000000000000000000000000000000000000000000000000000000600052602160045260246000fd5b836002811115611768577f4e487b7100000000000000000000000000000000000000000000000000000000600052602160045260246000fd5b14156117905781600301600060011515151581526020019081526020016000205490506117ad565b816003016000801515151581526020019081526020016000205490505b6000600285815481106117e9577f4e487b7100000000000000000000000000000000000000000000000000000000600052603260045260246000fd5b906000526020600020906008020160060154905060005b600380549050811015611bb057600060038281548110611849577f4e487b7100000000000000000000000000000000000000000000000000000000600052603260045260246000fd5b9060005260206000200160009054906101000a900473ffffffffffffffffffffffffffffffffffffffff1690506000600460008373ffffffffffffffffffffffffffffffffffffffff1673ffffffffffffffffffffffffffffffffffffffff168152602001908152602001600020905060008060028111156118f4577f4e487b7100000000000000000000000000000000000000000000000000000000600052602160045260246000fd5b88600281111561192d577f4e487b7100000000000000000000000000000000000000000000000000000000600052602160045260246000fd5b14156119b2578160000160008a8152602001908152602001600020600060011515151581526020019081526020016000205486868460000160008d815260200190815260200160002060006001151515158152602001908152602001600020546119979190612a80565b6119a19190612a4f565b6119ab91906129f9565b9050611b0d565b600160028111156119ec577f4e487b7100000000000000000000000000000000000000000000000000000000600052602160045260246000fd5b886002811115611a25577f4e487b7100000000000000000000000000000000000000000000000000000000600052602160045260246000fd5b1415611aa8578160000160008a81526020019081526020016000206000801515151581526020019081526020016000205486868460000160008d815260200190815260200160002060008015151515815260200190815260200160002054611a8d9190612a80565b611a979190612a4f565b611aa191906129f9565b9050611b0c565b8160000160008a8152602001908152602001600020600080151515158152602001908152602001600020548260000160008b81526020019081526020016000206000600115151515815260200190815260200160002054611b0991906129f9565b90505b5b60008054906101000a900473ffffffffffffffffffffffffffffffffffffffff1673ffffffffffffffffffffffffffffffffffffffff166340c10f1984836040518363ffffffff1660e01b8152600401611b68929190612785565b600060405180830381600087803b158015611b8257600080fd5b505af1158015611b96573d6000803e3d6000fd5b505050505050508080611ba890612c0e565b915050611800565b505050505050565b600060028381548110611bf4577f4e487b7100000000000000000000000000000000000000000000000000000000600052603260045260246000fd5b906000526020600020906008020190506000806002811115611c3f577f4e487b7100000000000000000000000000000000000000000000000000000000600052602160045260246000fd5b836002811115611c78577f4e487b7100000000000000000000000000000000000000000000000000000000600052602160045260246000fd5b1415611ca0578160030160006001151515158152602001908152602001600020549050611cbd565b816003016000801515151581526020019081526020016000205490505b60008260070154905060005b6003805490508110156120a257600060038281548110611d12577f4e487b7100000000000000000000000000000000000000000000000000000000600052603260045260246000fd5b9060005260206000200160009054906101000a900473ffffffffffffffffffffffffffffffffffffffff1690506000600460008373ffffffffffffffffffffffffffffffffffffffff1673ffffffffffffffffffffffffffffffffffffffff168152602001908152602001600020905060006002811115611dbc577f4e487b7100000000000000000000000000000000000000000000000000000000600052602160045260246000fd5b876002811115611df5577f4e487b7100000000000000000000000000000000000000000000000000000000600052602160045260246000fd5b1415611f0a5760008160010160008a8152602001908152602001600020600060011515151581526020019081526020016000205486868460010160008d81526020019081526020016000206000600115151515815260200190815260200160002054611e619190612a80565b611e6b9190612a4f565b611e7591906129f9565b905060008054906101000a900473ffffffffffffffffffffffffffffffffffffffff1673ffffffffffffffffffffffffffffffffffffffff166340c10f1984836040518363ffffffff1660e01b8152600401611ed2929190612785565b600060405180830381600087803b158015611eec57600080fd5b505af1158015611f00573d6000803e3d6000fd5b505050505061208d565b60016002811115611f44577f4e487b7100000000000000000000000000000000000000000000000000000000600052602160045260246000fd5b876002811115611f7d577f4e487b7100000000000000000000000000000000000000000000000000000000600052602160045260246000fd5b141561208c5760008160010160008a81526020019081526020016000206000801515151581526020019081526020016000205486868460010160008d815260200190815260200160002060008015151515815260200190815260200160002054611fe79190612a80565b611ff19190612a4f565b611ffb91906129f9565b905060008054906101000a900473ffffffffffffffffffffffffffffffffffffffff1673ffffffffffffffffffffffffffffffffffffffff166340c10f1984836040518363ffffffff1660e01b8152600401612058929190612785565b600060405180830381600087803b15801561207257600080fd5b505af1158015612086573d6000803e3d6000fd5b50505050505b5b5050808061209a90612c0e565b915050611cc9565b505050505050565b8280546120b690612bdc565b90600052602060002090601f0160209004810192826120d8576000855561211f565b82601f106120f157805160ff191683800117855561211f565b8280016001018555821561211f579182015b8281111561211e578251825591602001919060010190612103565b5b50905061212c9190612130565b5090565b5b80821115612149576000816000905550600101612131565b5090565b600061216061215b84612974565b612943565b90508281526020810184848401111561217857600080fd5b612183848285612ba9565b509392505050565b60008135905061219a81612ddd565b92915050565b6000815190506121af81612ddd565b92915050565b6000813590506121c481612df4565b92915050565b600082601f8301126121db57600080fd5b81516121eb84826020860161214d565b91505092915050565b60008135905061220381612e0b565b92915050565b60008151905061221881612e0b565b92915050565b60006020828403121561223057600080fd5b600061223e8482850161218b565b91505092915050565b6000806040838503121561225a57600080fd5b60006122688582860161218b565b9250506020612279858286016121f4565b9150509250929050565b6000806040838503121561229657600080fd5b600083015167ffffffffffffffff8111156122b057600080fd5b6122bc858286016121ca565b92505060206122cd858286016121a0565b9150509250929050565b6000602082840312156122e957600080fd5b60006122f7848285016121f4565b91505092915050565b60006020828403121561231257600080fd5b600061232084828501612209565b91505092915050565b60008060006060848603121561233e57600080fd5b600061234c868287016121f4565b935050602061235d868287016121b5565b925050604061236e868287016121f4565b9150509250925092565b60008060006060848603121561238d57600080fd5b600061239b868287016121f4565b93505060206123ac868287016121f4565b92505060406123bd868287016121f4565b9150509250925092565b60006123d383836126f8565b60208301905092915050565b6123e881612b0e565b82525050565b6123ff6123fa82612b0e565b612c57565b82525050565b6000612410826129b4565b61241a81856129d7565b9350612425836129a4565b8060005b8381101561245657815161243d88826123c7565b9750612448836129ca565b925050600181019050612429565b5085935050505092915050565b61246c81612b20565b82525050565b61248361247e82612b2c565b612c69565b82525050565b61249281612b73565b82525050565b6124a181612b97565b82525050565b60006124b2826129bf565b6124bc81856129e8565b93506124cc818560208601612ba9565b6124d581612dab565b840191505092915050565b60006124ed6021836129e8565b91507f566f74696e67207374616b65206578636565647320746865206d6178696d756d60008301527f2e000000000000000000000000000000000000000000000000000000000000006020830152604082019050919050565b60006125536026836129e8565b91507f43657274696679696e67207374616b652069732062656c6f7720746865206d6960008301527f6e696d756d2e00000000000000000000000000000000000000000000000000006020830152604082019050919050565b60006125b96021836129e8565b91507f496e73756666696369656e74204b61726d61546f6b656e7320746f20766f746560008301527f2e000000000000000000000000000000000000000000000000000000000000006020830152604082019050919050565b600061261f601c836129e8565b91507f506c6179657220697320616c72656164792072656769737465726564000000006000830152602082019050919050565b600061265f6018836129e8565b91507f506c61796572206973206e6f74207265676973746572656400000000000000006000830152602082019050919050565b600061269f6025836129e8565b91507f50726f706f736974696f6e2068617320616c7265616479206265656e2064656360008301527f696465642e0000000000000000000000000000000000000000000000000000006020830152604082019050919050565b61270181612b69565b82525050565b61271081612b69565b82525050565b61272761272282612b69565b612c85565b82525050565b60006127398286612716565b60208201915061274982856123ee565b6014820191506127598284612472565b602082019150819050949350505050565b600060208201905061277f60008301846123df565b92915050565b600060408201905061279a60008301856123df565b6127a76020830184612707565b9392505050565b600060208201905081810360008301526127c88184612405565b905092915050565b60006020820190506127e56000830184612489565b92915050565b600060e0820190508181036000830152612805818a6124a7565b9050818103602083015261281981896124a7565b905061282860408301886123df565b6128356060830187612463565b6128426080830186612498565b61284f60a0830185612707565b61285c60c0830184612707565b98975050505050505050565b60006020820190508181036000830152612881816124e0565b9050919050565b600060208201905081810360008301526128a181612546565b9050919050565b600060208201905081810360008301526128c1816125ac565b9050919050565b600060208201905081810360008301526128e181612612565b9050919050565b6000602082019050818103600083015261290181612652565b9050919050565b6000602082019050818103600083015261292181612692565b9050919050565b600060208201905061293d6000830184612707565b92915050565b6000604051905081810181811067ffffffffffffffff8211171561296a57612969612d7c565b5b8060405250919050565b600067ffffffffffffffff82111561298f5761298e612d7c565b5b601f19601f8301169050602081019050919050565b6000819050602082019050919050565b600081519050919050565b600081519050919050565b6000602082019050919050565b600082825260208201905092915050565b600082825260208201905092915050565b6000612a0482612b69565b9150612a0f83612b69565b9250827fffffffffffffffffffffffffffffffffffffffffffffffffffffffffffffffff03821115612a4457612a43612cc0565b5b828201905092915050565b6000612a5a82612b69565b9150612a6583612b69565b925082612a7557612a74612cef565b5b828204905092915050565b6000612a8b82612b69565b9150612a9683612b69565b9250817fffffffffffffffffffffffffffffffffffffffffffffffffffffffffffffffff0483118215151615612acf57612ace612cc0565b5b828202905092915050565b6000612ae582612b69565b9150612af083612b69565b925082821015612b0357612b02612cc0565b5b828203905092915050565b6000612b1982612b49565b9050919050565b60008115159050919050565b6000819050919050565b6000819050612b4482612dc9565b919050565b600073ffffffffffffffffffffffffffffffffffffffff82169050919050565b6000819050919050565b6000612b7e82612b85565b9050919050565b6000612b9082612b49565b9050919050565b6000612ba282612b36565b9050919050565b60005b83811015612bc7578082015181840152602081019050612bac565b83811115612bd6576000848401525b50505050565b60006002820490506001821680612bf457607f821691505b60208210811415612c0857612c07612d4d565b5b50919050565b6000612c1982612b69565b91507fffffffffffffffffffffffffffffffffffffffffffffffffffffffffffffffff821415612c4c57612c4b612cc0565b5b600182019050919050565b6000612c6282612c73565b9050919050565b6000819050919050565b6000612c7e82612dbc565b9050919050565b6000819050919050565b6000612c9a82612b69565b9150612ca583612b69565b925082612cb557612cb4612cef565b5b828206905092915050565b7f4e487b7100000000000000000000000000000000000000000000000000000000600052601160045260246000fd5b7f4e487b7100000000000000000000000000000000000000000000000000000000600052601260045260246000fd5b7f4e487b7100000000000000000000000000000000000000000000000000000000600052602160045260246000fd5b7f4e487b7100000000000000000000000000000000000000000000000000000000600052602260045260246000fd5b7f4e487b7100000000000000000000000000000000000000000000000000000000600052604160045260246000fd5b6000601f19601f8301169050919050565b60008160601b9050919050565b60038110612dda57612dd9612d1e565b5b50565b612de681612b0e565b8114612df157600080fd5b50565b612dfd81612b20565b8114612e0857600080fd5b50565b612e1481612b69565b8114612e1f57600080fd5b5056fea2646970667358221220e6b0f4b471255d41694de4a83fda23d2a4847f2b821a4a557a4305523574fde464736f6c6343000800003360806040523480156200001157600080fd5b5060405162001d6838038062001d68833981810160405281019062000037919062000339565b828281600390805190602001906200005192919062000200565b5080600490805190602001906200006a92919062000200565b5050506200007f33826200008860201b60201c565b50505062000645565b600073ffffffffffffffffffffffffffffffffffffffff168273ffffffffffffffffffffffffffffffffffffffff161415620000fb576040517f08c379a0000000000000000000000000000000000000000000000000000000008152600401620000f29062000414565b60405180910390fd5b6200010f60008383620001f660201b60201c565b8060026000828254620001239190620004cb565b92505081905550806000808473ffffffffffffffffffffffffffffffffffffffff1673ffffffffffffffffffffffffffffffffffffffff168152602001908152602001600020600082825401925050819055508173ffffffffffffffffffffffffffffffffffffffff16600073ffffffffffffffffffffffffffffffffffffffff167fddf252ad1be2c89b69c2b068fc378daa952ba7f163c4a11628f55a4df523b3ef83604051620001d6919062000436565b60405180910390a3620001f260008383620001fb60201b60201c565b5050565b505050565b505050565b8280546200020e9062000568565b90600052602060002090601f0160209004810192826200023257600085556200027e565b82601f106200024d57805160ff19168380011785556200027e565b828001600101855582156200027e579182015b828111156200027d57825182559160200191906001019062000260565b5b5090506200028d919062000291565b5090565b5b80821115620002ac57600081600090555060010162000292565b5090565b6000620002c7620002c18462000487565b62000453565b905082815260208101848484011115620002e057600080fd5b620002ed84828562000532565b509392505050565b600082601f8301126200030757600080fd5b815162000319848260208601620002b0565b91505092915050565b60008151905062000333816200062b565b92915050565b6000806000606084860312156200034f57600080fd5b600084015167ffffffffffffffff8111156200036a57600080fd5b6200037886828701620002f5565b935050602084015167ffffffffffffffff8111156200039657600080fd5b620003a486828701620002f5565b9250506040620003b78682870162000322565b9150509250925092565b6000620003d0601f83620004ba565b91507f45524332303a206d696e7420746f20746865207a65726f2061646472657373006000830152602082019050919050565b6200040e8162000528565b82525050565b600060208201905081810360008301526200042f81620003c1565b9050919050565b60006020820190506200044d600083018462000403565b92915050565b6000604051905081810181811067ffffffffffffffff821117156200047d576200047c620005fc565b5b8060405250919050565b600067ffffffffffffffff821115620004a557620004a4620005fc565b5b601f19601f8301169050602081019050919050565b600082825260208201905092915050565b6000620004d88262000528565b9150620004e58362000528565b9250827fffffffffffffffffffffffffffffffffffffffffffffffffffffffffffffffff038211156200051d576200051c6200059e565b5b828201905092915050565b6000819050919050565b60005b838110156200055257808201518184015260208101905062000535565b8381111562000562576000848401525b50505050565b600060028204905060018216806200058157607f821691505b60208210811415620005985762000597620005cd565b5b50919050565b7f4e487b7100000000000000000000000000000000000000000000000000000000600052601160045260246000fd5b7f4e487b7100000000000000000000000000000000000000000000000000000000600052602260045260246000fd5b7f4e487b7100000000000000000000000000000000000000000000000000000000600052604160045260246000fd5b620006368162000528565b81146200064257600080fd5b50565b61171380620006556000396000f3fe608060405234801561001057600080fd5b50600436106100cf5760003560e01c806340c10f191161008c5780639dc29fac116100665780639dc29fac14610228578063a457c2d714610244578063a9059cbb14610274578063dd62ed3e146102a4576100cf565b806340c10f19146101be57806370a08231146101da57806395d89b411461020a576100cf565b806306fdde03146100d4578063095ea7b3146100f257806318160ddd1461012257806323b872dd14610140578063313ce56714610170578063395093511461018e575b600080fd5b6100dc6102d4565b6040516100e9919061137c565b60405180910390f35b61010c60048036038101906101079190610f0f565b610366565b6040516101199190611361565b60405180910390f35b61012a610389565b60405161013791906114de565b60405180910390f35b61015a60048036038101906101559190610ec0565b610393565b6040516101679190611361565b60405180910390f35b6101786103c2565b60405161018591906114f9565b60405180910390f35b6101a860048036038101906101a39190610f0f565b6103cb565b6040516101b59190611361565b60405180910390f35b6101d860048036038101906101d39190610f0f565b610402565b005b6101f460048036038101906101ef9190610e5b565b610410565b60405161020191906114de565b60405180910390f35b610212610422565b60405161021f919061137c565b60405180910390f35b610242600480360381019061023d9190610f0f565b6104b4565b005b61025e60048036038101906102599190610f0f565b6104c2565b60405161026b9190611361565b60405180910390f35b61028e60048036038101906102899190610f0f565b610539565b60405161029b9190611361565b60405180910390f35b6102be60048036038101906102b99190610e84565b61055c565b6040516102cb91906114de565b60405180910390f35b6060600380546102e39061160e565b80601f016020809104026020016040519081016040528092919081815260200182805461030f9061160e565b801561035c5780601f106103315761010080835404028352916020019161035c565b820191906000526020600020905b81548152906001019060200180831161033f57829003601f168201915b5050505050905090565b6000806103716105e3565b905061037e8185856105eb565b600191505092915050565b6000600254905090565b60008061039e6105e3565b90506103ab8582856107b6565b6103b6858585610842565b60019150509392505050565b60006012905090565b6000806103d66105e3565b90506103f78185856103e8858961055c565b6103f29190611530565b6105eb565b600191505092915050565b61040c8282610aba565b5050565b600061041b82610c11565b9050919050565b6060600480546104319061160e565b80601f016020809104026020016040519081016040528092919081815260200182805461045d9061160e565b80156104aa5780601f1061047f576101008083540402835291602001916104aa565b820191906000526020600020905b81548152906001019060200180831161048d57829003601f168201915b5050505050905090565b6104be8282610c59565b5050565b6000806104cd6105e3565b905060006104db828661055c565b905083811015610520576040517f08c379a00000000000000000000000000000000000000000000000000000000081526004016105179061149e565b60405180910390fd5b61052d82868684036105eb565b60019250505092915050565b6000806105446105e3565b9050610551818585610842565b600191505092915050565b6000600160008473ffffffffffffffffffffffffffffffffffffffff1673ffffffffffffffffffffffffffffffffffffffff16815260200190815260200160002060008373ffffffffffffffffffffffffffffffffffffffff1673ffffffffffffffffffffffffffffffffffffffff16815260200190815260200160002054905092915050565b600033905090565b600073ffffffffffffffffffffffffffffffffffffffff168373ffffffffffffffffffffffffffffffffffffffff16141561065b576040517f08c379a00000000000000000000000000000000000000000000000000000000081526004016106529061147e565b60405180910390fd5b600073ffffffffffffffffffffffffffffffffffffffff168273ffffffffffffffffffffffffffffffffffffffff1614156106cb576040517f08c379a00000000000000000000000000000000000000000000000000000000081526004016106c2906113de565b60405180910390fd5b80600160008573ffffffffffffffffffffffffffffffffffffffff1673ffffffffffffffffffffffffffffffffffffffff16815260200190815260200160002060008473ffffffffffffffffffffffffffffffffffffffff1673ffffffffffffffffffffffffffffffffffffffff168152602001908152602001600020819055508173ffffffffffffffffffffffffffffffffffffffff168373ffffffffffffffffffffffffffffffffffffffff167f8c5be1e5ebec7d5bd14f71427d1e84f3dd0314c0f7b2291e5b200ac8c7c3b925836040516107a991906114de565b60405180910390a3505050565b60006107c2848461055c565b90507fffffffffffffffffffffffffffffffffffffffffffffffffffffffffffffffff811461083c578181101561082e576040517f08c379a0000000000000000000000000000000000000000000000000000000008152600401610825906113fe565b60405180910390fd5b61083b84848484036105eb565b5b50505050565b600073ffffffffffffffffffffffffffffffffffffffff168373ffffffffffffffffffffffffffffffffffffffff1614156108b2576040517f08c379a00000000000000000000000000000000000000000000000000000000081526004016108a99061145e565b60405180910390fd5b600073ffffffffffffffffffffffffffffffffffffffff168273ffffffffffffffffffffffffffffffffffffffff161415610922576040517f08c379a00000000000000000000000000000000000000000000000000000000081526004016109199061139e565b60405180910390fd5b61092d838383610e27565b60008060008573ffffffffffffffffffffffffffffffffffffffff1673ffffffffffffffffffffffffffffffffffffffff168152602001908152602001600020549050818110156109b3576040517f08c379a00000000000000000000000000000000000000000000000000000000081526004016109aa9061141e565b60405180910390fd5b8181036000808673ffffffffffffffffffffffffffffffffffffffff1673ffffffffffffffffffffffffffffffffffffffff16815260200190815260200160002081905550816000808573ffffffffffffffffffffffffffffffffffffffff1673ffffffffffffffffffffffffffffffffffffffff168152602001908152602001600020600082825401925050819055508273ffffffffffffffffffffffffffffffffffffffff168473ffffffffffffffffffffffffffffffffffffffff167fddf252ad1be2c89b69c2b068fc378daa952ba7f163c4a11628f55a4df523b3ef84604051610aa191906114de565b60405180910390a3610ab4848484610e2c565b50505050565b600073ffffffffffffffffffffffffffffffffffffffff168273ffffffffffffffffffffffffffffffffffffffff161415610b2a576040517f08c379a0000000000000000000000000000000000000000000000000000000008152600401610b21906114be565b60405180910390fd5b610b3660008383610e27565b8060026000828254610b489190611530565b92505081905550806000808473ffffffffffffffffffffffffffffffffffffffff1673ffffffffffffffffffffffffffffffffffffffff168152602001908152602001600020600082825401925050819055508173ffffffffffffffffffffffffffffffffffffffff16600073ffffffffffffffffffffffffffffffffffffffff167fddf252ad1be2c89b69c2b068fc378daa952ba7f163c4a11628f55a4df523b3ef83604051610bf991906114de565b60405180910390a3610c0d60008383610e2c565b5050565b60008060008373ffffffffffffffffffffffffffffffffffffffff1673ffffffffffffffffffffffffffffffffffffffff168152602001908152602001600020549050919050565b600073ffffffffffffffffffffffffffffffffffffffff168273ffffffffffffffffffffffffffffffffffffffff161415610cc9576040517f08c379a0000000000000000000000000000000000000000000000000000000008152600401610cc09061143e565b60405180910390fd5b610cd582600083610e27565b60008060008473ffffffffffffffffffffffffffffffffffffffff1673ffffffffffffffffffffffffffffffffffffffff16815260200190815260200160002054905081811015610d5b576040517f08c379a0000000000000000000000000000000000000000000000000000000008152600401610d52906113be565b60405180910390fd5b8181036000808573ffffffffffffffffffffffffffffffffffffffff1673ffffffffffffffffffffffffffffffffffffffff1681526020019081526020016000208190555081600260008282540392505081905550600073ffffffffffffffffffffffffffffffffffffffff168373ffffffffffffffffffffffffffffffffffffffff167fddf252ad1be2c89b69c2b068fc378daa952ba7f163c4a11628f55a4df523b3ef84604051610e0e91906114de565b60405180910390a3610e2283600084610e2c565b505050565b505050565b505050565b600081359050610e40816116af565b92915050565b600081359050610e55816116c6565b92915050565b600060208284031215610e6d57600080fd5b6000610e7b84828501610e31565b91505092915050565b60008060408385031215610e9757600080fd5b6000610ea585828601610e31565b9250506020610eb685828601610e31565b9150509250929050565b600080600060608486031215610ed557600080fd5b6000610ee386828701610e31565b9350506020610ef486828701610e31565b9250506040610f0586828701610e46565b9150509250925092565b60008060408385031215610f2257600080fd5b6000610f3085828601610e31565b9250506020610f4185828601610e46565b9150509250929050565b610f5481611598565b82525050565b6000610f6582611514565b610f6f818561151f565b9350610f7f8185602086016115db565b610f888161169e565b840191505092915050565b6000610fa060238361151f565b91507f45524332303a207472616e7366657220746f20746865207a65726f206164647260008301527f65737300000000000000000000000000000000000000000000000000000000006020830152604082019050919050565b600061100660228361151f565b91507f45524332303a206275726e20616d6f756e7420657863656564732062616c616e60008301527f63650000000000000000000000000000000000000000000000000000000000006020830152604082019050919050565b600061106c60228361151f565b91507f45524332303a20617070726f766520746f20746865207a65726f20616464726560008301527f73730000000000000000000000000000000000000000000000000000000000006020830152604082019050919050565b60006110d2601d8361151f565b91507f45524332303a20696e73756666696369656e7420616c6c6f77616e63650000006000830152602082019050919050565b600061111260268361151f565b91507f45524332303a207472616e7366657220616d6f756e742065786365656473206260008301527f616c616e636500000000000000000000000000000000000000000000000000006020830152604082019050919050565b600061117860218361151f565b91507f45524332303a206275726e2066726f6d20746865207a65726f2061646472657360008301527f73000000000000000000000000000000000000000000000000000000000000006020830152604082019050919050565b60006111de60258361151f565b91507f45524332303a207472616e736665722066726f6d20746865207a65726f20616460008301527f64726573730000000000000000000000000000000000000000000000000000006020830152604082019050919050565b600061124460248361151f565b91507f45524332303a20617070726f76652066726f6d20746865207a65726f2061646460008301527f72657373000000000000000000000000000000000000000000000000000000006020830152604082019050919050565b60006112aa60258361151f565b91507f45524332303a2064656372656173656420616c6c6f77616e63652062656c6f7760008301527f207a65726f0000000000000000000000000000000000000000000000000000006020830152604082019050919050565b6000611310601f8361151f565b91507f45524332303a206d696e7420746f20746865207a65726f2061646472657373006000830152602082019050919050565b61134c816115c4565b82525050565b61135b816115ce565b82525050565b60006020820190506113766000830184610f4b565b92915050565b600060208201905081810360008301526113968184610f5a565b905092915050565b600060208201905081810360008301526113b781610f93565b9050919050565b600060208201905081810360008301526113d781610ff9565b9050919050565b600060208201905081810360008301526113f78161105f565b9050919050565b60006020820190508181036000830152611417816110c5565b9050919050565b6000602082019050818103600083015261143781611105565b9050919050565b600060208201905081810360008301526114578161116b565b9050919050565b60006020820190508181036000830152611477816111d1565b9050919050565b6000602082019050818103600083015261149781611237565b9050919050565b600060208201905081810360008301526114b78161129d565b9050919050565b600060208201905081810360008301526114d781611303565b9050919050565b60006020820190506114f36000830184611343565b92915050565b600060208201905061150e6000830184611352565b92915050565b600081519050919050565b600082825260208201905092915050565b600061153b826115c4565b9150611546836115c4565b9250827fffffffffffffffffffffffffffffffffffffffffffffffffffffffffffffffff0382111561157b5761157a611640565b5b828201905092915050565b6000611591826115a4565b9050919050565b60008115159050919050565b600073ffffffffffffffffffffffffffffffffffffffff82169050919050565b6000819050919050565b600060ff82169050919050565b60005b838110156115f95780820151818401526020810190506115de565b83811115611608576000848401525b50505050565b6000600282049050600182168061162657607f821691505b6020821081141561163a5761163961166f565b5b50919050565b7f4e487b7100000000000000000000000000000000000000000000000000000000600052601160045260246000fd5b7f4e487b7100000000000000000000000000000000000000000000000000000000600052602260045260246000fd5b6000601f19601f8301169050919050565b6116b881611586565b81146116c357600080fd5b50565b6116cf816115c4565b81146116da57600080fd5b5056fea2646970667358221220a7c97eac05f664fee8ebe401fea984350747b28c6aacb6ac0c6eacdad3f13b7c64736f6c63430008000033",
  "immutableReferences": {},
  "source": "// SPDX-License-Identifier: MIT\r\npragma solidity ^0.8.0;\r\nimport \"./KarmaToken.sol\";\r\nimport \"./TwitterX.sol\";\r\n\r\ncontract ASTREA {\r\n    // Refer IV C.System Description\r\n    // To consider: Do we want to dynamically set these values based on bountyAmount?\r\n    uint256 public constant MAX_VOTING_STAKE = 10;\r\n    uint256 public constant MIN_CERTIFYING_STAKE = 10;\r\n    uint256 public constant DECISION_THRESHOLD = 50;\r\n\r\n    enum Outcomes { True, False, Undecided }\r\n    // Token contract\r\n    KarmaToken karmaTokenContract;\r\n    TwitterX public twitterXContract;\r\n\r\n    struct Proposition {\r\n        string tweetURL;\r\n        // A mapping of outcome (true or false) to the total voting stake for that outcome\r\n        string content;\r\n        address author;\r\n        mapping(bool=>uint256) votingStake;\r\n        mapping(bool => uint256) certifyingStake;\r\n        bool decided;\r\n        // 3 possible states: true, false, undecided\r\n        Outcomes trueOutcome;\r\n        // To be decided by the like count of the tweet?\r\n        uint256 bountyAmount; // reward for voting\r\n        uint256 rewardPool; // reward for certifying\r\n    }\r\n    Proposition[] public propositions;\r\n\r\n    struct Player {\r\n        // A mapping from proposition index to the player's voting stake\r\n        mapping(uint256 => mapping(bool => uint256)) votingStakes;\r\n        mapping(uint256 => mapping(bool => uint256)) certifyingStakes;\r\n    }\r\n    address[] public playerAddresses;\r\n    mapping(address => Player) private players;\r\n\r\n    constructor(uint256 initialSupply, address _twitterXAddress) {\r\n        karmaTokenContract = new KarmaToken(\"KarmaToken\", \"KarmaToken\", initialSupply);\r\n        twitterXContract = TwitterX(_twitterXAddress); // Initialize TwitterX contract\r\n    }\r\n\r\n    function setTwitterXAddress(address _twitterXAddress) public {\r\n        twitterXContract = TwitterX(_twitterXAddress);\r\n    }\r\n\r\n    function getKarmaToken(uint256 _amount) public {\r\n        karmaTokenContract.mint(msg.sender, _amount);\r\n    }\r\n\r\n    function addProposition(uint256 _tweetId, uint256 _bountyAmount, uint256 _rewardPool) public {\r\n    (string memory content, address author) = twitterXContract.getTweet(_tweetId); // Assuming TwitterX has a function getTweet that returns content and author\r\n        Proposition storage newProposition = propositions.push();\r\n        newProposition.content = content;\r\n        newProposition.author = author;\r\n        newProposition.bountyAmount = _bountyAmount;\r\n        newProposition.rewardPool = _rewardPool;\r\n    }\r\n\r\n    function getRandomProposition() public view returns (uint256) {\r\n        uint256 randomProposition = uint256(\r\n            keccak256(\r\n                abi.encodePacked(\r\n                    block.timestamp,\r\n                    msg.sender,\r\n                    blockhash(block.number - 1) // Use previous block's hash for additional randomness\r\n                )\r\n            )\r\n        ) % propositions.length;\r\n\r\n        return randomProposition;\r\n    }   \r\n\r\n    function addPlayer(address _playerAddress) public {\r\n        require(!isPlayerRegistered(_playerAddress), \"Player is already registered\");\r\n        playerAddresses.push(_playerAddress);\r\n    }\r\n\r\n    function isPlayerRegistered(address playerAddress) internal view returns (bool) {\r\n        for (uint256 i = 0; i < playerAddresses.length; i++) {\r\n            if (playerAddresses[i] == playerAddress) {\r\n                return true;\r\n            }\r\n        }\r\n        return false;\r\n    }\r\n\r\n    function getPlayerVotingStakes(address playerAddress, uint256 propositionIndex) public view returns (uint256[] memory) {\r\n        uint256[] memory votingStakes = new uint256[](2); // 2 because there are two possible outcomes (true and false)\r\n        votingStakes[0] = players[playerAddress].votingStakes[propositionIndex][true];\r\n        votingStakes[1] = players[playerAddress].votingStakes[propositionIndex][false];\r\n        return votingStakes;\r\n    }\r\n\r\n    function getPlayerCertifyingStakes(address playerAddress, uint256 propositionIndex) public view returns (uint256[] memory) {\r\n        uint256[] memory certifyingStakes = new uint256[](2); // 2 because there are two possible outcomes (true and false)\r\n        certifyingStakes[0] = players[playerAddress].certifyingStakes[propositionIndex][true];\r\n        certifyingStakes[1] = players[playerAddress].certifyingStakes[propositionIndex][false];\r\n        return certifyingStakes;\r\n    }\r\n\r\n    function voteOnProposition(uint256 _propositionIndex, bool _vote, uint256 _stake) public {\r\n        require(isPlayerRegistered(msg.sender), \"Player is not registered\");\r\n        require(_stake <= karmaTokenContract.balanceOf(msg.sender), \"Insufficient KarmaTokens to vote.\");\r\n        require(_stake <= MAX_VOTING_STAKE, \"Voting stake exceeds the maximum.\");\r\n        require(!propositions[_propositionIndex].decided, \"Proposition has already been decided.\");\r\n\r\n        karmaTokenContract.burn(msg.sender, _stake);\r\n        Player storage player = players[msg.sender];\r\n        Proposition storage proposition = propositions[_propositionIndex];\r\n\r\n        // Update voting stakes\r\n        proposition.votingStake[_vote] += _stake;\r\n        player.votingStakes[_propositionIndex][_vote] += _stake;\r\n\r\n        // Check if proposition has been decided\r\n        if (proposition.votingStake[true] >= DECISION_THRESHOLD || proposition.votingStake[false] >= DECISION_THRESHOLD) {\r\n            proposition.decided = true;\r\n\r\n            if (proposition.votingStake[true] > proposition.votingStake[false] && proposition.certifyingStake[true] > proposition.certifyingStake[false]) {\r\n                proposition.trueOutcome = Outcomes.True;\r\n            } else if (proposition.votingStake[false] > proposition.votingStake[true] && proposition.certifyingStake[false] > proposition.certifyingStake[true]){\r\n                proposition.trueOutcome = Outcomes.False;\r\n            } else {\r\n                proposition.trueOutcome = Outcomes.Undecided;\r\n            }\r\n\r\n            distributeVotingRewards(_propositionIndex, proposition.trueOutcome);\r\n            distributeCertifierRewards(_propositionIndex, proposition.trueOutcome);\r\n        }\r\n    }\r\n\r\n    function certifyProposition(uint256 _propositionIndex, bool _certification, uint256 _stake) public {\r\n        require(isPlayerRegistered(msg.sender), \"Player is not registered\");\r\n        require(_stake <= karmaTokenContract.balanceOf(msg.sender), \"Insufficient KarmaTokens to vote.\");\r\n        require(_stake >= MIN_CERTIFYING_STAKE, \"Certifying stake is below the minimum.\");\r\n        require(!propositions[_propositionIndex].decided, \"Proposition has already been decided.\");\r\n\r\n        karmaTokenContract.burn(msg.sender, _stake);\r\n        Player storage player = players[msg.sender];\r\n        Proposition storage proposition = propositions[_propositionIndex];\r\n\r\n        // Update certifying stakes\r\n        proposition.certifyingStake[_certification] += _stake;\r\n        player.certifyingStakes[_propositionIndex][_certification] += _stake;\r\n    }\r\n\r\n    function distributeVotingRewards(uint256 _propositionIndex, Outcomes _trueOutcome) private {\r\n        Proposition storage proposition = propositions[_propositionIndex];\r\n        uint256 totalCorrectVotingStake;\r\n        if (_trueOutcome == Outcomes.True) {\r\n            totalCorrectVotingStake = proposition.votingStake[true];\r\n        } else {\r\n            totalCorrectVotingStake = proposition.votingStake[false];\r\n        }\r\n        uint256 bountyAmount = propositions[_propositionIndex].bountyAmount;\r\n\r\n        for (uint256 i = 0; i < playerAddresses.length; i++) {\r\n            address playerAddress = playerAddresses[i];\r\n            Player storage player = players[playerAddress];\r\n            uint256 votingReward = 0;\r\n            if (_trueOutcome == Outcomes.True) {\r\n                votingReward = player.votingStakes[_propositionIndex][true] * bountyAmount / totalCorrectVotingStake + player.votingStakes[_propositionIndex][true];\r\n            } else if (_trueOutcome == Outcomes.False){\r\n                votingReward = player.votingStakes[_propositionIndex][false] * bountyAmount / totalCorrectVotingStake + player.votingStakes[_propositionIndex][false];\r\n            } else {\r\n                votingReward = player.votingStakes[_propositionIndex][true] + player.votingStakes[_propositionIndex][false];\r\n            }\r\n            karmaTokenContract.mint(playerAddress, votingReward);\r\n        }\r\n    }\r\n\r\n    function distributeCertifierRewards(uint256 _propositionIndex, Outcomes _trueOutcome) private {\r\n        Proposition storage proposition = propositions[_propositionIndex];\r\n        uint256 totalCorrectCertifyingStake;\r\n        if (_trueOutcome == Outcomes.True) {\r\n            totalCorrectCertifyingStake = proposition.votingStake[true];\r\n        } else {\r\n            totalCorrectCertifyingStake = proposition.votingStake[false];\r\n        }\r\n        uint256 rewardPoolAmount = proposition.rewardPool; \r\n\r\n        for (uint256 i = 0; i < playerAddresses.length; i++) {\r\n            address playerAddress = playerAddresses[i];\r\n            Player storage player = players[playerAddress];\r\n            if (_trueOutcome == Outcomes.True) {\r\n                uint256 certifierReward = player.certifyingStakes[_propositionIndex][true] * rewardPoolAmount / totalCorrectCertifyingStake + player.certifyingStakes[_propositionIndex][true];\r\n                karmaTokenContract.mint(playerAddress, certifierReward);\r\n            } else if (_trueOutcome == Outcomes.False) {\r\n                uint256 certifierReward = player.certifyingStakes[_propositionIndex][false] * rewardPoolAmount / totalCorrectCertifyingStake + player.certifyingStakes[_propositionIndex][false];\r\n                karmaTokenContract.mint(playerAddress, certifierReward);\r\n            }\r\n        }\r\n    }\r\n}",
  "sourcePath": "C:\\Users\\zenyew\\OneDrive\\Documents\\NUS\\Year4Sem2\\IS4302\\is4302-project\\contracts\\ASTREA.sol",
  "compiler": {
    "name": "solc",
    "version": "0.8.0+commit.c7dfd78e.Emscripten.clang"
  },
  "schemaVersion": "3.4.16",
  "updatedAt": "2024-04-19T20:29:18.959Z",
  "networkType": "ethereum",
  "devdoc": {
    "kind": "dev",
    "methods": {},
    "version": 1
  },
  "userdoc": {
    "kind": "user",
    "methods": {},
    "version": 1
  }
}