{
  "contractName": "ASTREA",
  "abi": [
    {
      "inputs": [
        {
          "internalType": "uint256",
          "name": "initialSupply",
          "type": "uint256"
        }
      ],
      "stateMutability": "nonpayable",
      "type": "constructor"
    },
    {
      "inputs": [],
      "name": "DECISION_THRESHOLD",
      "outputs": [
        {
          "internalType": "uint256",
          "name": "",
          "type": "uint256"
        }
      ],
      "stateMutability": "view",
      "type": "function"
    },
    {
      "inputs": [],
      "name": "MAX_VOTING_STAKE",
      "outputs": [
        {
          "internalType": "uint256",
          "name": "",
          "type": "uint256"
        }
      ],
      "stateMutability": "view",
      "type": "function"
    },
    {
      "inputs": [],
      "name": "MIN_CERTIFYING_STAKE",
      "outputs": [
        {
          "internalType": "uint256",
          "name": "",
          "type": "uint256"
        }
      ],
      "stateMutability": "view",
      "type": "function"
    },
    {
      "inputs": [
        {
          "internalType": "uint256",
          "name": "",
          "type": "uint256"
        }
      ],
      "name": "playerAddresses",
      "outputs": [
        {
          "internalType": "address",
          "name": "",
          "type": "address"
        }
      ],
      "stateMutability": "view",
      "type": "function"
    },
    {
      "inputs": [
        {
          "internalType": "uint256",
          "name": "",
          "type": "uint256"
        }
      ],
      "name": "propositions",
      "outputs": [
        {
          "internalType": "string",
          "name": "tweetURL",
          "type": "string"
        },
        {
          "internalType": "bool",
          "name": "decided",
          "type": "bool"
        },
        {
          "internalType": "enum ASTREA.Outcomes",
          "name": "trueOutcome",
          "type": "uint8"
        },
        {
          "internalType": "uint256",
          "name": "bountyAmount",
          "type": "uint256"
        },
        {
          "internalType": "uint256",
          "name": "rewardPool",
          "type": "uint256"
        }
      ],
      "stateMutability": "view",
      "type": "function"
    },
    {
      "inputs": [
        {
          "internalType": "uint256",
          "name": "_amount",
          "type": "uint256"
        }
      ],
      "name": "getKarmaToken",
      "outputs": [],
      "stateMutability": "nonpayable",
      "type": "function"
    },
    {
      "inputs": [
        {
          "internalType": "string",
          "name": "_tweetURL",
          "type": "string"
        },
        {
          "internalType": "uint256",
          "name": "_bountyAmount",
          "type": "uint256"
        },
        {
          "internalType": "uint256",
          "name": "_rewardPool",
          "type": "uint256"
        }
      ],
      "name": "addProposition",
      "outputs": [],
      "stateMutability": "nonpayable",
      "type": "function"
    },
    {
      "inputs": [],
      "name": "getRandomProposition",
      "outputs": [
        {
          "internalType": "uint256",
          "name": "",
          "type": "uint256"
        }
      ],
      "stateMutability": "view",
      "type": "function"
    },
    {
      "inputs": [
        {
          "internalType": "address",
          "name": "_playerAddress",
          "type": "address"
        }
      ],
      "name": "addPlayer",
      "outputs": [],
      "stateMutability": "nonpayable",
      "type": "function"
    },
    {
      "inputs": [
        {
          "internalType": "address",
          "name": "playerAddress",
          "type": "address"
        },
        {
          "internalType": "uint256",
          "name": "propositionIndex",
          "type": "uint256"
        }
      ],
      "name": "getPlayerVotingStakes",
      "outputs": [
        {
          "internalType": "uint256[]",
          "name": "",
          "type": "uint256[]"
        }
      ],
      "stateMutability": "view",
      "type": "function"
    },
    {
      "inputs": [
        {
          "internalType": "address",
          "name": "playerAddress",
          "type": "address"
        },
        {
          "internalType": "uint256",
          "name": "propositionIndex",
          "type": "uint256"
        }
      ],
      "name": "getPlayerCertifyingStakes",
      "outputs": [
        {
          "internalType": "uint256[]",
          "name": "",
          "type": "uint256[]"
        }
      ],
      "stateMutability": "view",
      "type": "function"
    },
    {
      "inputs": [
        {
          "internalType": "uint256",
          "name": "_propositionIndex",
          "type": "uint256"
        },
        {
          "internalType": "bool",
          "name": "_vote",
          "type": "bool"
        },
        {
          "internalType": "uint256",
          "name": "_stake",
          "type": "uint256"
        }
      ],
      "name": "voteOnProposition",
      "outputs": [],
      "stateMutability": "nonpayable",
      "type": "function"
    },
    {
      "inputs": [
        {
          "internalType": "uint256",
          "name": "_propositionIndex",
          "type": "uint256"
        },
        {
          "internalType": "bool",
          "name": "_certification",
          "type": "bool"
        },
        {
          "internalType": "uint256",
          "name": "_stake",
          "type": "uint256"
        }
      ],
      "name": "certifyProposition",
      "outputs": [],
      "stateMutability": "nonpayable",
      "type": "function"
    }
  ],
  "bytecode": "0x60806040523480156200001157600080fd5b5060405162004a7938038062004a798339818101604052810190620000379190620000db565b806040516200004690620000b6565b6200005291906200015a565b604051809103906000f0801580156200006f573d6000803e3d6000fd5b506000806101000a81548173ffffffffffffffffffffffffffffffffffffffff021916908373ffffffffffffffffffffffffffffffffffffffff16021790555050620001d6565b611d688062002d1183390190565b600081519050620000d581620001bc565b92915050565b600060208284031215620000ee57600080fd5b6000620000fe84828501620000c4565b91505092915050565b600062000116600a83620001a1565b91507f4b61726d61546f6b656e000000000000000000000000000000000000000000006000830152602082019050919050565b6200015481620001b2565b82525050565b60006060820190508181036000830152620001758162000107565b905081810360208301526200018a8162000107565b90506200019b604083018462000149565b92915050565b600082825260208201905092915050565b6000819050919050565b620001c781620001b2565b8114620001d357600080fd5b50565b612b2b80620001e66000396000f3fe608060405234801561001057600080fd5b50600436106100cf5760003560e01c806388cac48c1161008c578063b27183d211610066578063b27183d214610214578063c941c2dc14610248578063ecc1da4714610264578063ff1360d614610280576100cf565b806388cac48c146101aa57806394e1e0fb146101c8578063b1275f9a146101f8576100cf565b80630895111a146100d457806315c6aee2146101045780632ddf9d5f146101345780633ca350f31461015057806352d11af31461016e57806375437a581461018c575b600080fd5b6100ee60048036038101906100e99190611fb8565b61029c565b6040516100fb91906124d4565b60405180910390f35b61011e6004803603810190610119919061205b565b61047b565b60405161012b9190612490565b60405180910390f35b61014e6004803603810190610149919061205b565b6104ba565b005b61015861054a565b6040516101659190612610565b60405180910390f35b61017661054f565b6040516101839190612610565b60405180910390f35b6101946105a6565b6040516101a19190612610565b60405180910390f35b6101b26105ab565b6040516101bf9190612610565b60405180910390f35b6101e260048036038101906101dd9190611fb8565b6105b1565b6040516101ef91906124d4565b60405180910390f35b610212600480360381019061020d9190611f8f565b610790565b005b61022e6004803603810190610229919061205b565b61083f565b60405161023f9594939291906124f6565b60405180910390f35b610262600480360381019061025d91906120ad565b610927565b005b61027e60048036038101906102799190611ff4565b610f61565b005b61029a600480360381019061029591906120ad565b610fb5565b005b60606000600267ffffffffffffffff8111156102e1577f4e487b7100000000000000000000000000000000000000000000000000000000600052604160045260246000fd5b60405190808252806020026020018201604052801561030f5781602001602082028036833780820191505090505b509050600360008573ffffffffffffffffffffffffffffffffffffffff1673ffffffffffffffffffffffffffffffffffffffff16815260200190815260200160002060000160008481526020019081526020016000206000600115151515815260200190815260200160002054816000815181106103b6577f4e487b7100000000000000000000000000000000000000000000000000000000600052603260045260246000fd5b602002602001018181525050600360008573ffffffffffffffffffffffffffffffffffffffff1673ffffffffffffffffffffffffffffffffffffffff16815260200190815260200160002060000160008481526020019081526020016000206000801515151581526020019081526020016000205481600181518110610465577f4e487b7100000000000000000000000000000000000000000000000000000000600052603260045260246000fd5b6020026020010181815250508091505092915050565b6002818154811061048b57600080fd5b906000526020600020016000915054906101000a900473ffffffffffffffffffffffffffffffffffffffff1681565b60008054906101000a900473ffffffffffffffffffffffffffffffffffffffff1673ffffffffffffffffffffffffffffffffffffffff166340c10f1933836040518363ffffffff1660e01b81526004016105159291906124ab565b600060405180830381600087803b15801561052f57600080fd5b505af1158015610543573d6000803e3d6000fd5b5050505050565b606481565b600080600180549050423360014361056791906127c2565b4060405160200161057a93929190612453565b6040516020818303038152906040528051906020012060001c61059d9190612962565b90508091505090565b606481565b6103e881565b60606000600267ffffffffffffffff8111156105f6577f4e487b7100000000000000000000000000000000000000000000000000000000600052604160045260246000fd5b6040519080825280602002602001820160405280156106245781602001602082028036833780820191505090505b509050600360008573ffffffffffffffffffffffffffffffffffffffff1673ffffffffffffffffffffffffffffffffffffffff16815260200190815260200160002060010160008481526020019081526020016000206000600115151515815260200190815260200160002054816000815181106106cb577f4e487b7100000000000000000000000000000000000000000000000000000000600052603260045260246000fd5b602002602001018181525050600360008573ffffffffffffffffffffffffffffffffffffffff1673ffffffffffffffffffffffffffffffffffffffff1681526020019081526020016000206001016000848152602001908152602001600020600080151515158152602001908152602001600020548160018151811061077a577f4e487b7100000000000000000000000000000000000000000000000000000000600052603260045260246000fd5b6020026020010181815250508091505092915050565b61079981611359565b156107d9576040517f08c379a00000000000000000000000000000000000000000000000000000000081526004016107d0906125b0565b60405180910390fd5b6002819080600181540180825580915050600190039060005260206000200160009091909190916101000a81548173ffffffffffffffffffffffffffffffffffffffff021916908373ffffffffffffffffffffffffffffffffffffffff16021790555050565b6001818154811061084f57600080fd5b9060005260206000209060060201600091509050806000018054610872906128af565b80601f016020809104026020016040519081016040528092919081815260200182805461089e906128af565b80156108eb5780601f106108c0576101008083540402835291602001916108eb565b820191906000526020600020905b8154815290600101906020018083116108ce57829003601f168201915b5050505050908060030160009054906101000a900460ff16908060030160019054906101000a900460ff16908060040154908060050154905085565b61093033611359565b61096f576040517f08c379a0000000000000000000000000000000000000000000000000000000008152600401610966906125d0565b60405180910390fd5b60008054906101000a900473ffffffffffffffffffffffffffffffffffffffff1673ffffffffffffffffffffffffffffffffffffffff166370a08231336040518263ffffffff1660e01b81526004016109c89190612490565b60206040518083038186803b1580156109e057600080fd5b505afa1580156109f4573d6000803e3d6000fd5b505050506040513d601f19601f82011682018060405250810190610a189190612084565b811115610a5a576040517f08c379a0000000000000000000000000000000000000000000000000000000008152600401610a5190612590565b60405180910390fd5b6064811115610a9e576040517f08c379a0000000000000000000000000000000000000000000000000000000008152600401610a9590612550565b60405180910390fd5b60018381548110610ad8577f4e487b7100000000000000000000000000000000000000000000000000000000600052603260045260246000fd5b906000526020600020906006020160030160009054906101000a900460ff1615610b37576040517f08c379a0000000000000000000000000000000000000000000000000000000008152600401610b2e906125f0565b60405180910390fd5b60008054906101000a900473ffffffffffffffffffffffffffffffffffffffff1673ffffffffffffffffffffffffffffffffffffffff16639dc29fac33836040518363ffffffff1660e01b8152600401610b929291906124ab565b600060405180830381600087803b158015610bac57600080fd5b505af1158015610bc0573d6000803e3d6000fd5b505050506000600360003373ffffffffffffffffffffffffffffffffffffffff1673ffffffffffffffffffffffffffffffffffffffff1681526020019081526020016000209050600060018581548110610c43577f4e487b7100000000000000000000000000000000000000000000000000000000600052603260045260246000fd5b9060005260206000209060060201905082816001016000861515151581526020019081526020016000206000828254610c7c91906126e1565b92505081905550828260000160008781526020019081526020016000206000861515151581526020019081526020016000206000828254610cbd91906126e1565b925050819055506103e8816001016000600115151515815260200190815260200160002054101580610d0a57506103e8816001016000801515151581526020019081526020016000205410155b15610f5a5760018160030160006101000a81548160ff0219169083151502179055508060010160008015151515815260200190815260200160002054816001016000600115151515815260200190815260200160002054118015610da057508060020160008015151515815260200190815260200160002054816002016000600115151515815260200190815260200160002054115b15610dfd5760008160030160016101000a81548160ff02191690836002811115610df3577f4e487b7100000000000000000000000000000000000000000000000000000000600052602160045260246000fd5b0217905550610f23565b8060010160006001151515158152602001908152602001600020548160010160008015151515815260200190815260200160002054118015610e7157508060020160006001151515158152602001908152602001600020548160020160008015151515815260200190815260200160002054115b15610ece5760018160030160016101000a81548160ff02191690836002811115610ec4577f4e487b7100000000000000000000000000000000000000000000000000000000600052602160045260246000fd5b0217905550610f22565b60028160030160016101000a81548160ff02191690836002811115610f1c577f4e487b7100000000000000000000000000000000000000000000000000000000600052602160045260246000fd5b02179055505b5b610f3e858260030160019054906101000a900460ff1661142e565b610f59858260030160019054906101000a900460ff1661193e565b5b5050505050565b600060018081600181540180825580915050039060005260206000209060060201905083816000019080519060200190610f9c929190611e30565b5082816004018190555081816005018190555050505050565b610fbe33611359565b610ffd576040517f08c379a0000000000000000000000000000000000000000000000000000000008152600401610ff4906125d0565b60405180910390fd5b60008054906101000a900473ffffffffffffffffffffffffffffffffffffffff1673ffffffffffffffffffffffffffffffffffffffff166370a08231336040518263ffffffff1660e01b81526004016110569190612490565b60206040518083038186803b15801561106e57600080fd5b505afa158015611082573d6000803e3d6000fd5b505050506040513d601f19601f820116820180604052508101906110a69190612084565b8111156110e8576040517f08c379a00000000000000000000000000000000000000000000000000000000081526004016110df90612590565b60405180910390fd5b606481101561112c576040517f08c379a000000000000000000000000000000000000000000000000000000000815260040161112390612570565b60405180910390fd5b60018381548110611166577f4e487b7100000000000000000000000000000000000000000000000000000000600052603260045260246000fd5b906000526020600020906006020160030160009054906101000a900460ff16156111c5576040517f08c379a00000000000000000000000000000000000000000000000000000000081526004016111bc906125f0565b60405180910390fd5b60008054906101000a900473ffffffffffffffffffffffffffffffffffffffff1673ffffffffffffffffffffffffffffffffffffffff16639dc29fac33836040518363ffffffff1660e01b81526004016112209291906124ab565b600060405180830381600087803b15801561123a57600080fd5b505af115801561124e573d6000803e3d6000fd5b505050506000600360003373ffffffffffffffffffffffffffffffffffffffff1673ffffffffffffffffffffffffffffffffffffffff16815260200190815260200160002090506000600185815481106112d1577f4e487b7100000000000000000000000000000000000000000000000000000000600052603260045260246000fd5b906000526020600020906006020190508281600201600086151515158152602001908152602001600020600082825461130a91906126e1565b9250508190555082826001016000878152602001908152602001600020600086151515158152602001908152602001600020600082825461134b91906126e1565b925050819055505050505050565b600080600090505b600280549050811015611423578273ffffffffffffffffffffffffffffffffffffffff16600282815481106113bf577f4e487b7100000000000000000000000000000000000000000000000000000000600052603260045260246000fd5b9060005260206000200160009054906101000a900473ffffffffffffffffffffffffffffffffffffffff1673ffffffffffffffffffffffffffffffffffffffff161415611410576001915050611429565b808061141b906128e1565b915050611361565b50600090505b919050565b60006001838154811061146a577f4e487b7100000000000000000000000000000000000000000000000000000000600052603260045260246000fd5b9060005260206000209060060201905060008060028111156114b5577f4e487b7100000000000000000000000000000000000000000000000000000000600052602160045260246000fd5b8360028111156114ee577f4e487b7100000000000000000000000000000000000000000000000000000000600052602160045260246000fd5b1415611516578160010160006001151515158152602001908152602001600020549050611533565b816001016000801515151581526020019081526020016000205490505b60006001858154811061156f577f4e487b7100000000000000000000000000000000000000000000000000000000600052603260045260246000fd5b906000526020600020906006020160040154905060005b600280549050811015611936576000600282815481106115cf577f4e487b7100000000000000000000000000000000000000000000000000000000600052603260045260246000fd5b9060005260206000200160009054906101000a900473ffffffffffffffffffffffffffffffffffffffff1690506000600360008373ffffffffffffffffffffffffffffffffffffffff1673ffffffffffffffffffffffffffffffffffffffff1681526020019081526020016000209050600080600281111561167a577f4e487b7100000000000000000000000000000000000000000000000000000000600052602160045260246000fd5b8860028111156116b3577f4e487b7100000000000000000000000000000000000000000000000000000000600052602160045260246000fd5b1415611738578160000160008a8152602001908152602001600020600060011515151581526020019081526020016000205486868460000160008d8152602001908152602001600020600060011515151581526020019081526020016000205461171d9190612768565b6117279190612737565b61173191906126e1565b9050611893565b60016002811115611772577f4e487b7100000000000000000000000000000000000000000000000000000000600052602160045260246000fd5b8860028111156117ab577f4e487b7100000000000000000000000000000000000000000000000000000000600052602160045260246000fd5b141561182e578160000160008a81526020019081526020016000206000801515151581526020019081526020016000205486868460000160008d8152602001908152602001600020600080151515158152602001908152602001600020546118139190612768565b61181d9190612737565b61182791906126e1565b9050611892565b8160000160008a8152602001908152602001600020600080151515158152602001908152602001600020548260000160008b8152602001908152602001600020600060011515151581526020019081526020016000205461188f91906126e1565b90505b5b60008054906101000a900473ffffffffffffffffffffffffffffffffffffffff1673ffffffffffffffffffffffffffffffffffffffff166340c10f1984836040518363ffffffff1660e01b81526004016118ee9291906124ab565b600060405180830381600087803b15801561190857600080fd5b505af115801561191c573d6000803e3d6000fd5b50505050505050808061192e906128e1565b915050611586565b505050505050565b60006001838154811061197a577f4e487b7100000000000000000000000000000000000000000000000000000000600052603260045260246000fd5b9060005260206000209060060201905060008060028111156119c5577f4e487b7100000000000000000000000000000000000000000000000000000000600052602160045260246000fd5b8360028111156119fe577f4e487b7100000000000000000000000000000000000000000000000000000000600052602160045260246000fd5b1415611a26578160010160006001151515158152602001908152602001600020549050611a43565b816001016000801515151581526020019081526020016000205490505b60008260050154905060005b600280549050811015611e2857600060028281548110611a98577f4e487b7100000000000000000000000000000000000000000000000000000000600052603260045260246000fd5b9060005260206000200160009054906101000a900473ffffffffffffffffffffffffffffffffffffffff1690506000600360008373ffffffffffffffffffffffffffffffffffffffff1673ffffffffffffffffffffffffffffffffffffffff168152602001908152602001600020905060006002811115611b42577f4e487b7100000000000000000000000000000000000000000000000000000000600052602160045260246000fd5b876002811115611b7b577f4e487b7100000000000000000000000000000000000000000000000000000000600052602160045260246000fd5b1415611c905760008160010160008a8152602001908152602001600020600060011515151581526020019081526020016000205486868460010160008d81526020019081526020016000206000600115151515815260200190815260200160002054611be79190612768565b611bf19190612737565b611bfb91906126e1565b905060008054906101000a900473ffffffffffffffffffffffffffffffffffffffff1673ffffffffffffffffffffffffffffffffffffffff166340c10f1984836040518363ffffffff1660e01b8152600401611c589291906124ab565b600060405180830381600087803b158015611c7257600080fd5b505af1158015611c86573d6000803e3d6000fd5b5050505050611e13565b60016002811115611cca577f4e487b7100000000000000000000000000000000000000000000000000000000600052602160045260246000fd5b876002811115611d03577f4e487b7100000000000000000000000000000000000000000000000000000000600052602160045260246000fd5b1415611e125760008160010160008a81526020019081526020016000206000801515151581526020019081526020016000205486868460010160008d815260200190815260200160002060008015151515815260200190815260200160002054611d6d9190612768565b611d779190612737565b611d8191906126e1565b905060008054906101000a900473ffffffffffffffffffffffffffffffffffffffff1673ffffffffffffffffffffffffffffffffffffffff166340c10f1984836040518363ffffffff1660e01b8152600401611dde9291906124ab565b600060405180830381600087803b158015611df857600080fd5b505af1158015611e0c573d6000803e3d6000fd5b50505050505b5b50508080611e20906128e1565b915050611a4f565b505050505050565b828054611e3c906128af565b90600052602060002090601f016020900481019282611e5e5760008555611ea5565b82601f10611e7757805160ff1916838001178555611ea5565b82800160010185558215611ea5579182015b82811115611ea4578251825591602001919060010190611e89565b5b509050611eb29190611eb6565b5090565b5b80821115611ecf576000816000905550600101611eb7565b5090565b6000611ee6611ee18461265c565b61262b565b905082815260208101848484011115611efe57600080fd5b611f0984828561286d565b509392505050565b600081359050611f2081612ab0565b92915050565b600081359050611f3581612ac7565b92915050565b600082601f830112611f4c57600080fd5b8135611f5c848260208601611ed3565b91505092915050565b600081359050611f7481612ade565b92915050565b600081519050611f8981612ade565b92915050565b600060208284031215611fa157600080fd5b6000611faf84828501611f11565b91505092915050565b60008060408385031215611fcb57600080fd5b6000611fd985828601611f11565b9250506020611fea85828601611f65565b9150509250929050565b60008060006060848603121561200957600080fd5b600084013567ffffffffffffffff81111561202357600080fd5b61202f86828701611f3b565b935050602061204086828701611f65565b925050604061205186828701611f65565b9150509250925092565b60006020828403121561206d57600080fd5b600061207b84828501611f65565b91505092915050565b60006020828403121561209657600080fd5b60006120a484828501611f7a565b91505092915050565b6000806000606084860312156120c257600080fd5b60006120d086828701611f65565b93505060206120e186828701611f26565b92505060406120f286828701611f65565b9150509250925092565b6000612108838361241e565b60208301905092915050565b61211d816127f6565b82525050565b61213461212f826127f6565b61292a565b82525050565b60006121458261269c565b61214f81856126bf565b935061215a8361268c565b8060005b8381101561218b57815161217288826120fc565b975061217d836126b2565b92505060018101905061215e565b5085935050505092915050565b6121a181612808565b82525050565b6121b86121b382612814565b61293c565b82525050565b6121c78161285b565b82525050565b60006121d8826126a7565b6121e281856126d0565b93506121f281856020860161287c565b6121fb81612a7e565b840191505092915050565b60006122136021836126d0565b91507f566f74696e67207374616b65206578636565647320746865206d6178696d756d60008301527f2e000000000000000000000000000000000000000000000000000000000000006020830152604082019050919050565b60006122796026836126d0565b91507f43657274696679696e67207374616b652069732062656c6f7720746865206d6960008301527f6e696d756d2e00000000000000000000000000000000000000000000000000006020830152604082019050919050565b60006122df6021836126d0565b91507f496e73756666696369656e74204b61726d61546f6b656e7320746f20766f746560008301527f2e000000000000000000000000000000000000000000000000000000000000006020830152604082019050919050565b6000612345601c836126d0565b91507f506c6179657220697320616c72656164792072656769737465726564000000006000830152602082019050919050565b60006123856018836126d0565b91507f506c61796572206973206e6f74207265676973746572656400000000000000006000830152602082019050919050565b60006123c56025836126d0565b91507f50726f706f736974696f6e2068617320616c7265616479206265656e2064656360008301527f696465642e0000000000000000000000000000000000000000000000000000006020830152604082019050919050565b61242781612851565b82525050565b61243681612851565b82525050565b61244d61244882612851565b612958565b82525050565b600061245f828661243c565b60208201915061246f8285612123565b60148201915061247f82846121a7565b602082019150819050949350505050565b60006020820190506124a56000830184612114565b92915050565b60006040820190506124c06000830185612114565b6124cd602083018461242d565b9392505050565b600060208201905081810360008301526124ee818461213a565b905092915050565b600060a082019050818103600083015261251081886121cd565b905061251f6020830187612198565b61252c60408301866121be565b612539606083018561242d565b612546608083018461242d565b9695505050505050565b6000602082019050818103600083015261256981612206565b9050919050565b600060208201905081810360008301526125898161226c565b9050919050565b600060208201905081810360008301526125a9816122d2565b9050919050565b600060208201905081810360008301526125c981612338565b9050919050565b600060208201905081810360008301526125e981612378565b9050919050565b60006020820190508181036000830152612609816123b8565b9050919050565b6000602082019050612625600083018461242d565b92915050565b6000604051905081810181811067ffffffffffffffff8211171561265257612651612a4f565b5b8060405250919050565b600067ffffffffffffffff82111561267757612676612a4f565b5b601f19601f8301169050602081019050919050565b6000819050602082019050919050565b600081519050919050565b600081519050919050565b6000602082019050919050565b600082825260208201905092915050565b600082825260208201905092915050565b60006126ec82612851565b91506126f783612851565b9250827fffffffffffffffffffffffffffffffffffffffffffffffffffffffffffffffff0382111561272c5761272b612993565b5b828201905092915050565b600061274282612851565b915061274d83612851565b92508261275d5761275c6129c2565b5b828204905092915050565b600061277382612851565b915061277e83612851565b9250817fffffffffffffffffffffffffffffffffffffffffffffffffffffffffffffffff04831182151516156127b7576127b6612993565b5b828202905092915050565b60006127cd82612851565b91506127d883612851565b9250828210156127eb576127ea612993565b5b828203905092915050565b600061280182612831565b9050919050565b60008115159050919050565b6000819050919050565b600081905061282c82612a9c565b919050565b600073ffffffffffffffffffffffffffffffffffffffff82169050919050565b6000819050919050565b60006128668261281e565b9050919050565b82818337600083830152505050565b60005b8381101561289a57808201518184015260208101905061287f565b838111156128a9576000848401525b50505050565b600060028204905060018216806128c757607f821691505b602082108114156128db576128da612a20565b5b50919050565b60006128ec82612851565b91507fffffffffffffffffffffffffffffffffffffffffffffffffffffffffffffffff82141561291f5761291e612993565b5b600182019050919050565b600061293582612946565b9050919050565b6000819050919050565b600061295182612a8f565b9050919050565b6000819050919050565b600061296d82612851565b915061297883612851565b925082612988576129876129c2565b5b828206905092915050565b7f4e487b7100000000000000000000000000000000000000000000000000000000600052601160045260246000fd5b7f4e487b7100000000000000000000000000000000000000000000000000000000600052601260045260246000fd5b7f4e487b7100000000000000000000000000000000000000000000000000000000600052602160045260246000fd5b7f4e487b7100000000000000000000000000000000000000000000000000000000600052602260045260246000fd5b7f4e487b7100000000000000000000000000000000000000000000000000000000600052604160045260246000fd5b6000601f19601f8301169050919050565b60008160601b9050919050565b60038110612aad57612aac6129f1565b5b50565b612ab9816127f6565b8114612ac457600080fd5b50565b612ad081612808565b8114612adb57600080fd5b50565b612ae781612851565b8114612af257600080fd5b5056fea2646970667358221220c4e40dba3f29081c89b10bb013ebad4cad87aa1c2bf54d4d7595c4e81188d6fd64736f6c6343000800003360806040523480156200001157600080fd5b5060405162001d6838038062001d68833981810160405281019062000037919062000339565b828281600390805190602001906200005192919062000200565b5080600490805190602001906200006a92919062000200565b5050506200007f33826200008860201b60201c565b50505062000645565b600073ffffffffffffffffffffffffffffffffffffffff168273ffffffffffffffffffffffffffffffffffffffff161415620000fb576040517f08c379a0000000000000000000000000000000000000000000000000000000008152600401620000f29062000414565b60405180910390fd5b6200010f60008383620001f660201b60201c565b8060026000828254620001239190620004cb565b92505081905550806000808473ffffffffffffffffffffffffffffffffffffffff1673ffffffffffffffffffffffffffffffffffffffff168152602001908152602001600020600082825401925050819055508173ffffffffffffffffffffffffffffffffffffffff16600073ffffffffffffffffffffffffffffffffffffffff167fddf252ad1be2c89b69c2b068fc378daa952ba7f163c4a11628f55a4df523b3ef83604051620001d6919062000436565b60405180910390a3620001f260008383620001fb60201b60201c565b5050565b505050565b505050565b8280546200020e9062000568565b90600052602060002090601f0160209004810192826200023257600085556200027e565b82601f106200024d57805160ff19168380011785556200027e565b828001600101855582156200027e579182015b828111156200027d57825182559160200191906001019062000260565b5b5090506200028d919062000291565b5090565b5b80821115620002ac57600081600090555060010162000292565b5090565b6000620002c7620002c18462000487565b62000453565b905082815260208101848484011115620002e057600080fd5b620002ed84828562000532565b509392505050565b600082601f8301126200030757600080fd5b815162000319848260208601620002b0565b91505092915050565b60008151905062000333816200062b565b92915050565b6000806000606084860312156200034f57600080fd5b600084015167ffffffffffffffff8111156200036a57600080fd5b6200037886828701620002f5565b935050602084015167ffffffffffffffff8111156200039657600080fd5b620003a486828701620002f5565b9250506040620003b78682870162000322565b9150509250925092565b6000620003d0601f83620004ba565b91507f45524332303a206d696e7420746f20746865207a65726f2061646472657373006000830152602082019050919050565b6200040e8162000528565b82525050565b600060208201905081810360008301526200042f81620003c1565b9050919050565b60006020820190506200044d600083018462000403565b92915050565b6000604051905081810181811067ffffffffffffffff821117156200047d576200047c620005fc565b5b8060405250919050565b600067ffffffffffffffff821115620004a557620004a4620005fc565b5b601f19601f8301169050602081019050919050565b600082825260208201905092915050565b6000620004d88262000528565b9150620004e58362000528565b9250827fffffffffffffffffffffffffffffffffffffffffffffffffffffffffffffffff038211156200051d576200051c6200059e565b5b828201905092915050565b6000819050919050565b60005b838110156200055257808201518184015260208101905062000535565b8381111562000562576000848401525b50505050565b600060028204905060018216806200058157607f821691505b60208210811415620005985762000597620005cd565b5b50919050565b7f4e487b7100000000000000000000000000000000000000000000000000000000600052601160045260246000fd5b7f4e487b7100000000000000000000000000000000000000000000000000000000600052602260045260246000fd5b7f4e487b7100000000000000000000000000000000000000000000000000000000600052604160045260246000fd5b620006368162000528565b81146200064257600080fd5b50565b61171380620006556000396000f3fe608060405234801561001057600080fd5b50600436106100cf5760003560e01c806340c10f191161008c5780639dc29fac116100665780639dc29fac14610228578063a457c2d714610244578063a9059cbb14610274578063dd62ed3e146102a4576100cf565b806340c10f19146101be57806370a08231146101da57806395d89b411461020a576100cf565b806306fdde03146100d4578063095ea7b3146100f257806318160ddd1461012257806323b872dd14610140578063313ce56714610170578063395093511461018e575b600080fd5b6100dc6102d4565b6040516100e9919061137c565b60405180910390f35b61010c60048036038101906101079190610f0f565b610366565b6040516101199190611361565b60405180910390f35b61012a610389565b60405161013791906114de565b60405180910390f35b61015a60048036038101906101559190610ec0565b610393565b6040516101679190611361565b60405180910390f35b6101786103c2565b60405161018591906114f9565b60405180910390f35b6101a860048036038101906101a39190610f0f565b6103cb565b6040516101b59190611361565b60405180910390f35b6101d860048036038101906101d39190610f0f565b610402565b005b6101f460048036038101906101ef9190610e5b565b610410565b60405161020191906114de565b60405180910390f35b610212610422565b60405161021f919061137c565b60405180910390f35b610242600480360381019061023d9190610f0f565b6104b4565b005b61025e60048036038101906102599190610f0f565b6104c2565b60405161026b9190611361565b60405180910390f35b61028e60048036038101906102899190610f0f565b610539565b60405161029b9190611361565b60405180910390f35b6102be60048036038101906102b99190610e84565b61055c565b6040516102cb91906114de565b60405180910390f35b6060600380546102e39061160e565b80601f016020809104026020016040519081016040528092919081815260200182805461030f9061160e565b801561035c5780601f106103315761010080835404028352916020019161035c565b820191906000526020600020905b81548152906001019060200180831161033f57829003601f168201915b5050505050905090565b6000806103716105e3565b905061037e8185856105eb565b600191505092915050565b6000600254905090565b60008061039e6105e3565b90506103ab8582856107b6565b6103b6858585610842565b60019150509392505050565b60006012905090565b6000806103d66105e3565b90506103f78185856103e8858961055c565b6103f29190611530565b6105eb565b600191505092915050565b61040c8282610aba565b5050565b600061041b82610c11565b9050919050565b6060600480546104319061160e565b80601f016020809104026020016040519081016040528092919081815260200182805461045d9061160e565b80156104aa5780601f1061047f576101008083540402835291602001916104aa565b820191906000526020600020905b81548152906001019060200180831161048d57829003601f168201915b5050505050905090565b6104be8282610c59565b5050565b6000806104cd6105e3565b905060006104db828661055c565b905083811015610520576040517f08c379a00000000000000000000000000000000000000000000000000000000081526004016105179061149e565b60405180910390fd5b61052d82868684036105eb565b60019250505092915050565b6000806105446105e3565b9050610551818585610842565b600191505092915050565b6000600160008473ffffffffffffffffffffffffffffffffffffffff1673ffffffffffffffffffffffffffffffffffffffff16815260200190815260200160002060008373ffffffffffffffffffffffffffffffffffffffff1673ffffffffffffffffffffffffffffffffffffffff16815260200190815260200160002054905092915050565b600033905090565b600073ffffffffffffffffffffffffffffffffffffffff168373ffffffffffffffffffffffffffffffffffffffff16141561065b576040517f08c379a00000000000000000000000000000000000000000000000000000000081526004016106529061147e565b60405180910390fd5b600073ffffffffffffffffffffffffffffffffffffffff168273ffffffffffffffffffffffffffffffffffffffff1614156106cb576040517f08c379a00000000000000000000000000000000000000000000000000000000081526004016106c2906113de565b60405180910390fd5b80600160008573ffffffffffffffffffffffffffffffffffffffff1673ffffffffffffffffffffffffffffffffffffffff16815260200190815260200160002060008473ffffffffffffffffffffffffffffffffffffffff1673ffffffffffffffffffffffffffffffffffffffff168152602001908152602001600020819055508173ffffffffffffffffffffffffffffffffffffffff168373ffffffffffffffffffffffffffffffffffffffff167f8c5be1e5ebec7d5bd14f71427d1e84f3dd0314c0f7b2291e5b200ac8c7c3b925836040516107a991906114de565b60405180910390a3505050565b60006107c2848461055c565b90507fffffffffffffffffffffffffffffffffffffffffffffffffffffffffffffffff811461083c578181101561082e576040517f08c379a0000000000000000000000000000000000000000000000000000000008152600401610825906113fe565b60405180910390fd5b61083b84848484036105eb565b5b50505050565b600073ffffffffffffffffffffffffffffffffffffffff168373ffffffffffffffffffffffffffffffffffffffff1614156108b2576040517f08c379a00000000000000000000000000000000000000000000000000000000081526004016108a99061145e565b60405180910390fd5b600073ffffffffffffffffffffffffffffffffffffffff168273ffffffffffffffffffffffffffffffffffffffff161415610922576040517f08c379a00000000000000000000000000000000000000000000000000000000081526004016109199061139e565b60405180910390fd5b61092d838383610e27565b60008060008573ffffffffffffffffffffffffffffffffffffffff1673ffffffffffffffffffffffffffffffffffffffff168152602001908152602001600020549050818110156109b3576040517f08c379a00000000000000000000000000000000000000000000000000000000081526004016109aa9061141e565b60405180910390fd5b8181036000808673ffffffffffffffffffffffffffffffffffffffff1673ffffffffffffffffffffffffffffffffffffffff16815260200190815260200160002081905550816000808573ffffffffffffffffffffffffffffffffffffffff1673ffffffffffffffffffffffffffffffffffffffff168152602001908152602001600020600082825401925050819055508273ffffffffffffffffffffffffffffffffffffffff168473ffffffffffffffffffffffffffffffffffffffff167fddf252ad1be2c89b69c2b068fc378daa952ba7f163c4a11628f55a4df523b3ef84604051610aa191906114de565b60405180910390a3610ab4848484610e2c565b50505050565b600073ffffffffffffffffffffffffffffffffffffffff168273ffffffffffffffffffffffffffffffffffffffff161415610b2a576040517f08c379a0000000000000000000000000000000000000000000000000000000008152600401610b21906114be565b60405180910390fd5b610b3660008383610e27565b8060026000828254610b489190611530565b92505081905550806000808473ffffffffffffffffffffffffffffffffffffffff1673ffffffffffffffffffffffffffffffffffffffff168152602001908152602001600020600082825401925050819055508173ffffffffffffffffffffffffffffffffffffffff16600073ffffffffffffffffffffffffffffffffffffffff167fddf252ad1be2c89b69c2b068fc378daa952ba7f163c4a11628f55a4df523b3ef83604051610bf991906114de565b60405180910390a3610c0d60008383610e2c565b5050565b60008060008373ffffffffffffffffffffffffffffffffffffffff1673ffffffffffffffffffffffffffffffffffffffff168152602001908152602001600020549050919050565b600073ffffffffffffffffffffffffffffffffffffffff168273ffffffffffffffffffffffffffffffffffffffff161415610cc9576040517f08c379a0000000000000000000000000000000000000000000000000000000008152600401610cc09061143e565b60405180910390fd5b610cd582600083610e27565b60008060008473ffffffffffffffffffffffffffffffffffffffff1673ffffffffffffffffffffffffffffffffffffffff16815260200190815260200160002054905081811015610d5b576040517f08c379a0000000000000000000000000000000000000000000000000000000008152600401610d52906113be565b60405180910390fd5b8181036000808573ffffffffffffffffffffffffffffffffffffffff1673ffffffffffffffffffffffffffffffffffffffff1681526020019081526020016000208190555081600260008282540392505081905550600073ffffffffffffffffffffffffffffffffffffffff168373ffffffffffffffffffffffffffffffffffffffff167fddf252ad1be2c89b69c2b068fc378daa952ba7f163c4a11628f55a4df523b3ef84604051610e0e91906114de565b60405180910390a3610e2283600084610e2c565b505050565b505050565b505050565b600081359050610e40816116af565b92915050565b600081359050610e55816116c6565b92915050565b600060208284031215610e6d57600080fd5b6000610e7b84828501610e31565b91505092915050565b60008060408385031215610e9757600080fd5b6000610ea585828601610e31565b9250506020610eb685828601610e31565b9150509250929050565b600080600060608486031215610ed557600080fd5b6000610ee386828701610e31565b9350506020610ef486828701610e31565b9250506040610f0586828701610e46565b9150509250925092565b60008060408385031215610f2257600080fd5b6000610f3085828601610e31565b9250506020610f4185828601610e46565b9150509250929050565b610f5481611598565b82525050565b6000610f6582611514565b610f6f818561151f565b9350610f7f8185602086016115db565b610f888161169e565b840191505092915050565b6000610fa060238361151f565b91507f45524332303a207472616e7366657220746f20746865207a65726f206164647260008301527f65737300000000000000000000000000000000000000000000000000000000006020830152604082019050919050565b600061100660228361151f565b91507f45524332303a206275726e20616d6f756e7420657863656564732062616c616e60008301527f63650000000000000000000000000000000000000000000000000000000000006020830152604082019050919050565b600061106c60228361151f565b91507f45524332303a20617070726f766520746f20746865207a65726f20616464726560008301527f73730000000000000000000000000000000000000000000000000000000000006020830152604082019050919050565b60006110d2601d8361151f565b91507f45524332303a20696e73756666696369656e7420616c6c6f77616e63650000006000830152602082019050919050565b600061111260268361151f565b91507f45524332303a207472616e7366657220616d6f756e742065786365656473206260008301527f616c616e636500000000000000000000000000000000000000000000000000006020830152604082019050919050565b600061117860218361151f565b91507f45524332303a206275726e2066726f6d20746865207a65726f2061646472657360008301527f73000000000000000000000000000000000000000000000000000000000000006020830152604082019050919050565b60006111de60258361151f565b91507f45524332303a207472616e736665722066726f6d20746865207a65726f20616460008301527f64726573730000000000000000000000000000000000000000000000000000006020830152604082019050919050565b600061124460248361151f565b91507f45524332303a20617070726f76652066726f6d20746865207a65726f2061646460008301527f72657373000000000000000000000000000000000000000000000000000000006020830152604082019050919050565b60006112aa60258361151f565b91507f45524332303a2064656372656173656420616c6c6f77616e63652062656c6f7760008301527f207a65726f0000000000000000000000000000000000000000000000000000006020830152604082019050919050565b6000611310601f8361151f565b91507f45524332303a206d696e7420746f20746865207a65726f2061646472657373006000830152602082019050919050565b61134c816115c4565b82525050565b61135b816115ce565b82525050565b60006020820190506113766000830184610f4b565b92915050565b600060208201905081810360008301526113968184610f5a565b905092915050565b600060208201905081810360008301526113b781610f93565b9050919050565b600060208201905081810360008301526113d781610ff9565b9050919050565b600060208201905081810360008301526113f78161105f565b9050919050565b60006020820190508181036000830152611417816110c5565b9050919050565b6000602082019050818103600083015261143781611105565b9050919050565b600060208201905081810360008301526114578161116b565b9050919050565b60006020820190508181036000830152611477816111d1565b9050919050565b6000602082019050818103600083015261149781611237565b9050919050565b600060208201905081810360008301526114b78161129d565b9050919050565b600060208201905081810360008301526114d781611303565b9050919050565b60006020820190506114f36000830184611343565b92915050565b600060208201905061150e6000830184611352565b92915050565b600081519050919050565b600082825260208201905092915050565b600061153b826115c4565b9150611546836115c4565b9250827fffffffffffffffffffffffffffffffffffffffffffffffffffffffffffffffff0382111561157b5761157a611640565b5b828201905092915050565b6000611591826115a4565b9050919050565b60008115159050919050565b600073ffffffffffffffffffffffffffffffffffffffff82169050919050565b6000819050919050565b600060ff82169050919050565b60005b838110156115f95780820151818401526020810190506115de565b83811115611608576000848401525b50505050565b6000600282049050600182168061162657607f821691505b6020821081141561163a5761163961166f565b5b50919050565b7f4e487b7100000000000000000000000000000000000000000000000000000000600052601160045260246000fd5b7f4e487b7100000000000000000000000000000000000000000000000000000000600052602260045260246000fd5b6000601f19601f8301169050919050565b6116b881611586565b81146116c357600080fd5b50565b6116cf816115c4565b81146116da57600080fd5b5056fea2646970667358221220a7c97eac05f664fee8ebe401fea984350747b28c6aacb6ac0c6eacdad3f13b7c64736f6c63430008000033",
  "immutableReferences": {},
  "source": "// SPDX-License-Identifier: MIT\r\npragma solidity ^0.8.0;\r\nimport \"./KarmaToken.sol\";\r\n\r\ncontract ASTREA {\r\n    // Refer IV C.System Description\r\n    // To consider: Do we want to dynamically set these values based on bountyAmount?\r\n    uint256 public constant MAX_VOTING_STAKE = 100;\r\n    uint256 public constant MIN_CERTIFYING_STAKE = 100;\r\n    uint256 public constant DECISION_THRESHOLD = 1000;\r\n\r\n    enum Outcomes { True, False, Undecided }\r\n    // Token contract\r\n    KarmaToken karmaTokenContract;\r\n\r\n    struct Proposition {\r\n        string tweetURL;\r\n        // A mapping of outcome (true or false) to the total voting stake for that outcome\r\n        mapping(bool=>uint256) votingStake;\r\n        mapping(bool => uint256) certifyingStake;\r\n        bool decided;\r\n        // 3 possible states: true, false, undecided\r\n        Outcomes trueOutcome;\r\n        // To be decided by the like count of the tweet?\r\n        uint256 bountyAmount; // reward for voting\r\n        uint256 rewardPool; // reward for certifying\r\n    }\r\n    Proposition[] public propositions;\r\n\r\n    struct Player {\r\n        // A mapping from proposition index to the player's voting stake\r\n        mapping(uint256 => mapping(bool => uint256)) votingStakes;\r\n        mapping(uint256 => mapping(bool => uint256)) certifyingStakes;\r\n    }\r\n    address[] public playerAddresses;\r\n    mapping(address => Player) private players;\r\n\r\n    constructor(uint256 initialSupply) {\r\n        karmaTokenContract = new KarmaToken(\"KarmaToken\", \"KarmaToken\", initialSupply);\r\n    }\r\n\r\n    function getKarmaToken(uint256 _amount) public {\r\n        karmaTokenContract.mint(msg.sender, _amount);\r\n    }\r\n\r\n    function addProposition(string memory _tweetURL, uint256 _bountyAmount, uint256 _rewardPool) public {\r\n        Proposition storage newProposition = propositions.push();\r\n        newProposition.tweetURL = _tweetURL;\r\n        newProposition.bountyAmount = _bountyAmount;\r\n        newProposition.rewardPool = _rewardPool;\r\n    }\r\n\r\n    function getRandomProposition() public view returns (uint256) {\r\n        uint256 randomProposition = uint256(\r\n            keccak256(\r\n                abi.encodePacked(\r\n                    block.timestamp,\r\n                    msg.sender,\r\n                    blockhash(block.number - 1) // Use previous block's hash for additional randomness\r\n                )\r\n            )\r\n        ) % propositions.length;\r\n\r\n        return randomProposition;\r\n    }   \r\n\r\n    function addPlayer(address _playerAddress) public {\r\n        require(!isPlayerRegistered(_playerAddress), \"Player is already registered\");\r\n        playerAddresses.push(_playerAddress);\r\n    }\r\n\r\n    function isPlayerRegistered(address playerAddress) internal view returns (bool) {\r\n        for (uint256 i = 0; i < playerAddresses.length; i++) {\r\n            if (playerAddresses[i] == playerAddress) {\r\n                return true;\r\n            }\r\n        }\r\n        return false;\r\n    }\r\n\r\n    function getPlayerVotingStakes(address playerAddress, uint256 propositionIndex) public view returns (uint256[] memory) {\r\n        uint256[] memory votingStakes = new uint256[](2); // 2 because there are two possible outcomes (true and false)\r\n        votingStakes[0] = players[playerAddress].votingStakes[propositionIndex][true];\r\n        votingStakes[1] = players[playerAddress].votingStakes[propositionIndex][false];\r\n        return votingStakes;\r\n    }\r\n\r\n    function getPlayerCertifyingStakes(address playerAddress, uint256 propositionIndex) public view returns (uint256[] memory) {\r\n        uint256[] memory certifyingStakes = new uint256[](2); // 2 because there are two possible outcomes (true and false)\r\n        certifyingStakes[0] = players[playerAddress].certifyingStakes[propositionIndex][true];\r\n        certifyingStakes[1] = players[playerAddress].certifyingStakes[propositionIndex][false];\r\n        return certifyingStakes;\r\n    }\r\n\r\n    function voteOnProposition(uint256 _propositionIndex, bool _vote, uint256 _stake) public {\r\n        require(isPlayerRegistered(msg.sender), \"Player is not registered\");\r\n        require(_stake <= karmaTokenContract.balanceOf(msg.sender), \"Insufficient KarmaTokens to vote.\");\r\n        require(_stake <= MAX_VOTING_STAKE, \"Voting stake exceeds the maximum.\");\r\n        require(!propositions[_propositionIndex].decided, \"Proposition has already been decided.\");\r\n\r\n        karmaTokenContract.burn(msg.sender, _stake);\r\n        Player storage player = players[msg.sender];\r\n        Proposition storage proposition = propositions[_propositionIndex];\r\n\r\n        // Update voting stakes\r\n        proposition.votingStake[_vote] += _stake;\r\n        player.votingStakes[_propositionIndex][_vote] += _stake;\r\n\r\n        // Check if proposition has been decided\r\n        if (proposition.votingStake[true] >= DECISION_THRESHOLD || proposition.votingStake[false] >= DECISION_THRESHOLD) {\r\n            proposition.decided = true;\r\n\r\n            if (proposition.votingStake[true] > proposition.votingStake[false] && proposition.certifyingStake[true] > proposition.certifyingStake[false]) {\r\n                proposition.trueOutcome = Outcomes.True;\r\n            } else if (proposition.votingStake[false] > proposition.votingStake[true] && proposition.certifyingStake[false] > proposition.certifyingStake[true]){\r\n                proposition.trueOutcome = Outcomes.False;\r\n            } else {\r\n                proposition.trueOutcome = Outcomes.Undecided;\r\n            }\r\n\r\n            distributeVotingRewards(_propositionIndex, proposition.trueOutcome);\r\n            distributeCertifierRewards(_propositionIndex, proposition.trueOutcome);\r\n        }\r\n    }\r\n\r\n    function certifyProposition(uint256 _propositionIndex, bool _certification, uint256 _stake) public {\r\n        require(isPlayerRegistered(msg.sender), \"Player is not registered\");\r\n        require(_stake <= karmaTokenContract.balanceOf(msg.sender), \"Insufficient KarmaTokens to vote.\");\r\n        require(_stake >= MIN_CERTIFYING_STAKE, \"Certifying stake is below the minimum.\");\r\n        require(!propositions[_propositionIndex].decided, \"Proposition has already been decided.\");\r\n\r\n        karmaTokenContract.burn(msg.sender, _stake);\r\n        Player storage player = players[msg.sender];\r\n        Proposition storage proposition = propositions[_propositionIndex];\r\n\r\n        // Update certifying stakes\r\n        proposition.certifyingStake[_certification] += _stake;\r\n        player.certifyingStakes[_propositionIndex][_certification] += _stake;\r\n    }\r\n\r\n    function distributeVotingRewards(uint256 _propositionIndex, Outcomes _trueOutcome) private {\r\n        Proposition storage proposition = propositions[_propositionIndex];\r\n        uint256 totalCorrectVotingStake;\r\n        if (_trueOutcome == Outcomes.True) {\r\n            totalCorrectVotingStake = proposition.votingStake[true];\r\n        } else {\r\n            totalCorrectVotingStake = proposition.votingStake[false];\r\n        }\r\n        uint256 bountyAmount = propositions[_propositionIndex].bountyAmount;\r\n\r\n        for (uint256 i = 0; i < playerAddresses.length; i++) {\r\n            address playerAddress = playerAddresses[i];\r\n            Player storage player = players[playerAddress];\r\n            uint256 votingReward = 0;\r\n            if (_trueOutcome == Outcomes.True) {\r\n                votingReward = player.votingStakes[_propositionIndex][true] * bountyAmount / totalCorrectVotingStake + player.votingStakes[_propositionIndex][true];\r\n            } else if (_trueOutcome == Outcomes.False){\r\n                votingReward = player.votingStakes[_propositionIndex][false] * bountyAmount / totalCorrectVotingStake + player.votingStakes[_propositionIndex][false];\r\n            } else {\r\n                votingReward = player.votingStakes[_propositionIndex][true] + player.votingStakes[_propositionIndex][false];\r\n            }\r\n            karmaTokenContract.mint(playerAddress, votingReward);\r\n        }\r\n    }\r\n\r\n    function distributeCertifierRewards(uint256 _propositionIndex, Outcomes _trueOutcome) private {\r\n        Proposition storage proposition = propositions[_propositionIndex];\r\n        uint256 totalCorrectCertifyingStake;\r\n        if (_trueOutcome == Outcomes.True) {\r\n            totalCorrectCertifyingStake = proposition.votingStake[true];\r\n        } else {\r\n            totalCorrectCertifyingStake = proposition.votingStake[false];\r\n        }\r\n        uint256 rewardPoolAmount = proposition.rewardPool; \r\n\r\n        for (uint256 i = 0; i < playerAddresses.length; i++) {\r\n            address playerAddress = playerAddresses[i];\r\n            Player storage player = players[playerAddress];\r\n            if (_trueOutcome == Outcomes.True) {\r\n                uint256 certifierReward = player.certifyingStakes[_propositionIndex][true] * rewardPoolAmount / totalCorrectCertifyingStake + player.certifyingStakes[_propositionIndex][true];\r\n                karmaTokenContract.mint(playerAddress, certifierReward);\r\n            } else if (_trueOutcome == Outcomes.False) {\r\n                uint256 certifierReward = player.certifyingStakes[_propositionIndex][false] * rewardPoolAmount / totalCorrectCertifyingStake + player.certifyingStakes[_propositionIndex][false];\r\n                karmaTokenContract.mint(playerAddress, certifierReward);\r\n            }\r\n        }\r\n    }\r\n}",
  "sourcePath": "C:\\Users\\Admin\\Desktop\\is4302-project\\contracts\\ASTREA.sol",
  "compiler": {
    "name": "solc",
    "version": "0.8.0+commit.c7dfd78e.Emscripten.clang"
  },
  "schemaVersion": "3.4.16",
  "updatedAt": "2024-04-19T07:09:48.009Z",
  "devdoc": {
    "kind": "dev",
    "methods": {},
    "version": 1
  },
  "userdoc": {
    "kind": "user",
    "methods": {},
    "version": 1
  }
}