{
  "contractName": "TwitterX",
  "abi": [
    {
      "anonymous": false,
      "inputs": [
        {
          "indexed": false,
          "internalType": "uint256",
          "name": "tweetId",
          "type": "uint256"
        }
      ],
      "name": "PropositionStarted",
      "type": "event"
    },
    {
      "anonymous": false,
      "inputs": [
        {
          "indexed": false,
          "internalType": "uint256",
          "name": "tweetId",
          "type": "uint256"
        },
        {
          "indexed": false,
          "internalType": "address",
          "name": "author",
          "type": "address"
        },
        {
          "indexed": false,
          "internalType": "string",
          "name": "content",
          "type": "string"
        }
      ],
      "name": "TweetCreated",
      "type": "event"
    },
    {
      "anonymous": false,
      "inputs": [
        {
          "indexed": false,
          "internalType": "uint256",
          "name": "tweetId",
          "type": "uint256"
        }
      ],
      "name": "TweetDeleted",
      "type": "event"
    },
    {
      "anonymous": false,
      "inputs": [
        {
          "indexed": false,
          "internalType": "uint256",
          "name": "tweetId",
          "type": "uint256"
        },
        {
          "indexed": false,
          "internalType": "string",
          "name": "newContent",
          "type": "string"
        }
      ],
      "name": "TweetUpdated",
      "type": "event"
    },
    {
      "anonymous": false,
      "inputs": [
        {
          "indexed": false,
          "internalType": "uint256",
          "name": "tweetId",
          "type": "uint256"
        },
        {
          "indexed": false,
          "internalType": "address",
          "name": "voter",
          "type": "address"
        },
        {
          "indexed": false,
          "internalType": "bool",
          "name": "vote",
          "type": "bool"
        },
        {
          "indexed": false,
          "internalType": "uint256",
          "name": "role",
          "type": "uint256"
        },
        {
          "indexed": false,
          "internalType": "uint256",
          "name": "stake",
          "type": "uint256"
        }
      ],
      "name": "Voted",
      "type": "event"
    },
    {
      "inputs": [],
      "name": "nextTweetId",
      "outputs": [
        {
          "internalType": "uint256",
          "name": "",
          "type": "uint256"
        }
      ],
      "stateMutability": "view",
      "type": "function",
      "constant": true
    },
    {
      "inputs": [
        {
          "internalType": "uint256",
          "name": "",
          "type": "uint256"
        }
      ],
      "name": "tweets",
      "outputs": [
        {
          "internalType": "uint256",
          "name": "id",
          "type": "uint256"
        },
        {
          "internalType": "address",
          "name": "author",
          "type": "address"
        },
        {
          "internalType": "string",
          "name": "content",
          "type": "string"
        },
        {
          "internalType": "bool",
          "name": "isProposition",
          "type": "bool"
        },
        {
          "internalType": "uint256",
          "name": "totalVotes",
          "type": "uint256"
        }
      ],
      "stateMutability": "view",
      "type": "function",
      "constant": true
    },
    {
      "inputs": [
        {
          "internalType": "uint256",
          "name": "",
          "type": "uint256"
        },
        {
          "internalType": "uint256",
          "name": "",
          "type": "uint256"
        }
      ],
      "name": "votes",
      "outputs": [
        {
          "internalType": "address",
          "name": "participant",
          "type": "address"
        },
        {
          "internalType": "bool",
          "name": "vote",
          "type": "bool"
        },
        {
          "internalType": "uint256",
          "name": "role",
          "type": "uint256"
        },
        {
          "internalType": "uint256",
          "name": "stake",
          "type": "uint256"
        }
      ],
      "stateMutability": "view",
      "type": "function",
      "constant": true
    },
    {
      "inputs": [
        {
          "internalType": "string",
          "name": "content",
          "type": "string"
        }
      ],
      "name": "createTweet",
      "outputs": [],
      "stateMutability": "nonpayable",
      "type": "function"
    },
    {
      "inputs": [
        {
          "internalType": "uint256",
          "name": "tweetId",
          "type": "uint256"
        },
        {
          "internalType": "string",
          "name": "newContent",
          "type": "string"
        }
      ],
      "name": "updateTweet",
      "outputs": [],
      "stateMutability": "nonpayable",
      "type": "function"
    },
    {
      "inputs": [
        {
          "internalType": "uint256",
          "name": "tweetId",
          "type": "uint256"
        }
      ],
      "name": "deleteTweet",
      "outputs": [],
      "stateMutability": "nonpayable",
      "type": "function"
    },
    {
      "inputs": [
        {
          "internalType": "uint256",
          "name": "tweetId",
          "type": "uint256"
        }
      ],
      "name": "startProposition",
      "outputs": [],
      "stateMutability": "nonpayable",
      "type": "function"
    },
    {
      "inputs": [
        {
          "internalType": "uint256",
          "name": "tweetId",
          "type": "uint256"
        },
        {
          "internalType": "bool",
          "name": "vote",
          "type": "bool"
        },
        {
          "internalType": "uint256",
          "name": "role",
          "type": "uint256"
        }
      ],
      "name": "voteOnTweet",
      "outputs": [],
      "stateMutability": "payable",
      "type": "function",
      "payable": true
    }
  ],
  "bytecode": "0x6080604052600160025534801561001557600080fd5b5061193a806100256000396000f3fe60806040526004361061007b5760003560e01c8063bb89991d1161004e578063bb89991d14610126578063c6e36a3214610142578063e8d857b014610182578063fdf42126146101c35761007b565b80635775912a146100805780637c0aa77a146100a95780637c9cd2bc146100d25780638076e02b146100fb575b600080fd5b34801561008c57600080fd5b506100a760048036038101906100a29190611015565b6101ec565b005b3480156100b557600080fd5b506100d060048036038101906100cb919061108d565b6103bd565b005b3480156100de57600080fd5b506100f960048036038101906100f49190610fd4565b61054b565b005b34801561010757600080fd5b50610110610655565b60405161011d919061154c565b60405180910390f35b610140600480360381019061013b919061103e565b61065b565b005b34801561014e57600080fd5b50610169600480360381019061016491906110e1565b610b5b565b6040516101799493929190611427565b60405180910390f35b34801561018e57600080fd5b506101a960048036038101906101a49190611015565b610bd5565b6040516101ba9594939291906115f8565b60405180910390f35b3480156101cf57600080fd5b506101ea60048036038101906101e59190611015565b610cd0565b005b3373ffffffffffffffffffffffffffffffffffffffff16600060018361021291906116ff565b81548110610249577f4e487b7100000000000000000000000000000000000000000000000000000000600052603260045260246000fd5b906000526020600020906007020160010160009054906101000a900473ffffffffffffffffffffffffffffffffffffffff1673ffffffffffffffffffffffffffffffffffffffff16146102d1576040517f08c379a00000000000000000000000000000000000000000000000000000000081526004016102c8906114ec565b60405180910390fd5b60006001826102e091906116ff565b81548110610317577f4e487b7100000000000000000000000000000000000000000000000000000000600052603260045260246000fd5b90600052602060002090600702016000808201600090556001820160006101000a81549073ffffffffffffffffffffffffffffffffffffffff02191690556002820160006103659190610e5f565b6003820160006101000a81549060ff0219169055600482016000905550507fcff984d3d6983751ef01f1bad6665f0a9ab887ed70e453a3e9d01009d82c9fd1816040516103b2919061154c565b60405180910390a150565b3373ffffffffffffffffffffffffffffffffffffffff1660006001846103e391906116ff565b8154811061041a577f4e487b7100000000000000000000000000000000000000000000000000000000600052603260045260246000fd5b906000526020600020906007020160010160009054906101000a900473ffffffffffffffffffffffffffffffffffffffff1673ffffffffffffffffffffffffffffffffffffffff16146104a2576040517f08c379a00000000000000000000000000000000000000000000000000000000081526004016104999061148c565b60405180910390fd5b8060006001846104b291906116ff565b815481106104e9577f4e487b7100000000000000000000000000000000000000000000000000000000600052603260045260246000fd5b9060005260206000209060070201600201908051906020019061050d929190610e9f565b507f6ebd612dea8bfa08e83c4eb25ef328abb2047c26ad069e2f79820599155225e8828260405161053f929190611652565b60405180910390a15050565b60008060018160018154018082558091505003906000526020600020906007020190506002548160000181905550338160010160006101000a81548173ffffffffffffffffffffffffffffffffffffffff021916908373ffffffffffffffffffffffffffffffffffffffff160217905550818160020190805190602001906105d4929190610e9f565b5060008160030160006101000a81548160ff021916908315150217905550600081600401819055507f5b04dbcff53dfd77771f59e7ba56ec837ac5325729cf7f1dd0ed4aef082a6aab6002543384604051610631939291906115ba565b60405180910390a16002600081548092919061064c906117ef565b91905055505050565b60025481565b600060018461066a91906116ff565b815481106106a1577f4e487b7100000000000000000000000000000000000000000000000000000000600052603260045260246000fd5b906000526020600020906007020160030160009054906101000a900460ff166106ff576040517f08c379a00000000000000000000000000000000000000000000000000000000081526004016106f69061150c565b60405180910390fd5b600060018461070e91906116ff565b81548110610745577f4e487b7100000000000000000000000000000000000000000000000000000000600052603260045260246000fd5b906000526020600020906007020160060160003373ffffffffffffffffffffffffffffffffffffffff1673ffffffffffffffffffffffffffffffffffffffff16815260200190815260200160002060009054906101000a900460ff16156107e1576040517f08c379a00000000000000000000000000000000000000000000000000000000081526004016107d89061152c565b60405180910390fd5b60003411610824576040517f08c379a000000000000000000000000000000000000000000000000000000000815260040161081b906114cc565b60405180910390fd5b60018114806108335750600281145b610872576040517f08c379a00000000000000000000000000000000000000000000000000000000081526004016108699061146c565b60405180910390fd5b6001600060018561088391906116ff565b815481106108ba577f4e487b7100000000000000000000000000000000000000000000000000000000600052603260045260246000fd5b906000526020600020906007020160060160003373ffffffffffffffffffffffffffffffffffffffff1673ffffffffffffffffffffffffffffffffffffffff16815260200190815260200160002060006101000a81548160ff02191690831515021790555034600060018561092f91906116ff565b81548110610966577f4e487b7100000000000000000000000000000000000000000000000000000000600052603260045260246000fd5b906000526020600020906007020160050160003373ffffffffffffffffffffffffffffffffffffffff1673ffffffffffffffffffffffffffffffffffffffff1681526020019081526020016000208190555060006001846109c791906116ff565b815481106109fe577f4e487b7100000000000000000000000000000000000000000000000000000000600052603260045260246000fd5b90600052602060002090600702016004016000815480929190610a20906117ef565b91905055506001600084815260200190815260200160002060405180608001604052803373ffffffffffffffffffffffffffffffffffffffff168152602001841515815260200183815260200134815250908060018154018082558091505060019003906000526020600020906003020160009091909190915060008201518160000160006101000a81548173ffffffffffffffffffffffffffffffffffffffff021916908373ffffffffffffffffffffffffffffffffffffffff16021790555060208201518160000160146101000a81548160ff021916908315150217905550604082015181600101556060820151816002015550507f72977ad883f7d5821678747ec7baf0a5afb5fcb5da86f061dbd347b408edef448333848434604051610b4e959493929190611567565b60405180910390a1505050565b60016020528160005260406000208181548110610b7757600080fd5b9060005260206000209060030201600091509150508060000160009054906101000a900473ffffffffffffffffffffffffffffffffffffffff16908060000160149054906101000a900460ff16908060010154908060020154905084565b60008181548110610be557600080fd5b90600052602060002090600702016000915090508060000154908060010160009054906101000a900473ffffffffffffffffffffffffffffffffffffffff1690806002018054610c34906117bd565b80601f0160208091040260200160405190810160405280929190818152602001828054610c60906117bd565b8015610cad5780601f10610c8257610100808354040283529160200191610cad565b820191906000526020600020905b815481529060010190602001808311610c9057829003601f168201915b5050505050908060030160009054906101000a900460ff16908060040154905085565b3373ffffffffffffffffffffffffffffffffffffffff166000600183610cf691906116ff565b81548110610d2d577f4e487b7100000000000000000000000000000000000000000000000000000000600052603260045260246000fd5b906000526020600020906007020160010160009054906101000a900473ffffffffffffffffffffffffffffffffffffffff1673ffffffffffffffffffffffffffffffffffffffff1614610db5576040517f08c379a0000000000000000000000000000000000000000000000000000000008152600401610dac906114ac565b60405180910390fd5b60016000600183610dc691906116ff565b81548110610dfd577f4e487b7100000000000000000000000000000000000000000000000000000000600052603260045260246000fd5b906000526020600020906007020160030160006101000a81548160ff0219169083151502179055507f1867ccee088177c66fb7a9815f51f43fd08f760a6f9c9fd6ba64824ac7c273dc81604051610e54919061154c565b60405180910390a150565b508054610e6b906117bd565b6000825580601f10610e7d5750610e9c565b601f016020900490600052602060002090810190610e9b9190610f25565b5b50565b828054610eab906117bd565b90600052602060002090601f016020900481019282610ecd5760008555610f14565b82601f10610ee657805160ff1916838001178555610f14565b82800160010185558215610f14579182015b82811115610f13578251825591602001919060010190610ef8565b5b509050610f219190610f25565b5090565b5b80821115610f3e576000816000905550600101610f26565b5090565b6000610f55610f50846116b3565b611682565b905082815260208101848484011115610f6d57600080fd5b610f7884828561177b565b509392505050565b600081359050610f8f816118d6565b92915050565b600082601f830112610fa657600080fd5b8135610fb6848260208601610f42565b91505092915050565b600081359050610fce816118ed565b92915050565b600060208284031215610fe657600080fd5b600082013567ffffffffffffffff81111561100057600080fd5b61100c84828501610f95565b91505092915050565b60006020828403121561102757600080fd5b600061103584828501610fbf565b91505092915050565b60008060006060848603121561105357600080fd5b600061106186828701610fbf565b935050602061107286828701610f80565b925050604061108386828701610fbf565b9150509250925092565b600080604083850312156110a057600080fd5b60006110ae85828601610fbf565b925050602083013567ffffffffffffffff8111156110cb57600080fd5b6110d785828601610f95565b9150509250929050565b600080604083850312156110f457600080fd5b600061110285828601610fbf565b925050602061111385828601610fbf565b9150509250929050565b61112681611733565b82525050565b61113581611745565b82525050565b6000611146826116e3565b61115081856116ee565b935061116081856020860161178a565b611169816118c5565b840191505092915050565b6000611181602f836116ee565b91507f496e76616c696420726f6c653a20757365203120666f7220766f7465722c203260008301527f20666f72206365727469666965722e00000000000000000000000000000000006020830152604082019050919050565b60006111e76025836116ee565b91507f4f6e6c792074686520617574686f722063616e2075706461746520746865207460008301527f776565742e0000000000000000000000000000000000000000000000000000006020830152604082019050919050565b600061124d6028836116ee565b91507f4f6e6c792074686520617574686f722063616e20737461727420612070726f7060008301527f6f736974696f6e2e0000000000000000000000000000000000000000000000006020830152604082019050919050565b60006112b3602c836116ee565b91507f596f75206d757374207374616b6520736f6d6520616d6f756e74206f6620657460008301527f68657220746f20766f74652e00000000000000000000000000000000000000006020830152604082019050919050565b60006113196025836116ee565b91507f4f6e6c792074686520617574686f722063616e2064656c65746520746865207460008301527f776565742e0000000000000000000000000000000000000000000000000000006020830152604082019050919050565b600061137f6020836116ee565b91507f54686973207477656574206973206e6f7420612070726f706f736974696f6e2e6000830152602082019050919050565b60006113bf6025836116ee565b91507f596f75206861766520616c726561647920766f746564206f6e2074686973207460008301527f776565742e0000000000000000000000000000000000000000000000000000006020830152604082019050919050565b61142181611771565b82525050565b600060808201905061143c600083018761111d565b611449602083018661112c565b6114566040830185611418565b6114636060830184611418565b95945050505050565b6000602082019050818103600083015261148581611174565b9050919050565b600060208201905081810360008301526114a5816111da565b9050919050565b600060208201905081810360008301526114c581611240565b9050919050565b600060208201905081810360008301526114e5816112a6565b9050919050565b600060208201905081810360008301526115058161130c565b9050919050565b6000602082019050818103600083015261152581611372565b9050919050565b60006020820190508181036000830152611545816113b2565b9050919050565b60006020820190506115616000830184611418565b92915050565b600060a08201905061157c6000830188611418565b611589602083018761111d565b611596604083018661112c565b6115a36060830185611418565b6115b06080830184611418565b9695505050505050565b60006060820190506115cf6000830186611418565b6115dc602083018561111d565b81810360408301526115ee818461113b565b9050949350505050565b600060a08201905061160d6000830188611418565b61161a602083018761111d565b818103604083015261162c818661113b565b905061163b606083018561112c565b6116486080830184611418565b9695505050505050565b60006040820190506116676000830185611418565b8181036020830152611679818461113b565b90509392505050565b6000604051905081810181811067ffffffffffffffff821117156116a9576116a8611896565b5b8060405250919050565b600067ffffffffffffffff8211156116ce576116cd611896565b5b601f19601f8301169050602081019050919050565b600081519050919050565b600082825260208201905092915050565b600061170a82611771565b915061171583611771565b92508282101561172857611727611838565b5b828203905092915050565b600061173e82611751565b9050919050565b60008115159050919050565b600073ffffffffffffffffffffffffffffffffffffffff82169050919050565b6000819050919050565b82818337600083830152505050565b60005b838110156117a857808201518184015260208101905061178d565b838111156117b7576000848401525b50505050565b600060028204905060018216806117d557607f821691505b602082108114156117e9576117e8611867565b5b50919050565b60006117fa82611771565b91507fffffffffffffffffffffffffffffffffffffffffffffffffffffffffffffffff82141561182d5761182c611838565b5b600182019050919050565b7f4e487b7100000000000000000000000000000000000000000000000000000000600052601160045260246000fd5b7f4e487b7100000000000000000000000000000000000000000000000000000000600052602260045260246000fd5b7f4e487b7100000000000000000000000000000000000000000000000000000000600052604160045260246000fd5b6000601f19601f8301169050919050565b6118df81611745565b81146118ea57600080fd5b50565b6118f681611771565b811461190157600080fd5b5056fea2646970667358221220224eb2f63fac0f4f499d41c3513fa442926bcc0bfa7cc1580cae864f9b5ab16d64736f6c63430008000033",
  "immutableReferences": {},
  "source": "// SPDX-License-Identifier: MIT\r\npragma solidity ^0.8.0;\r\n\r\ncontract TwitterX {\r\n    struct Tweet {\r\n        uint id;\r\n        address author;\r\n        string content;\r\n        bool isProposition;\r\n        uint totalVotes;\r\n        mapping(address => uint) stakes;\r\n        mapping(address => bool) hasVoted;\r\n    }\r\n\r\n    struct Vote {\r\n        address participant;\r\n        bool vote; // true for yes, false for no\r\n        uint role; // 1 for voter, 2 for certifier\r\n        uint stake;\r\n    }\r\n\r\n    Tweet[] public tweets;\r\n    mapping(uint => Vote[]) public votes; // mapping from tweet ID to list of votes\r\n\r\n    uint public nextTweetId = 1;\r\n\r\n    event TweetCreated(uint tweetId, address author, string content);\r\n    event TweetUpdated(uint tweetId, string newContent);\r\n    event TweetDeleted(uint tweetId);\r\n    event PropositionStarted(uint tweetId);\r\n    event Voted(uint tweetId, address voter, bool vote, uint role, uint stake);\r\n\r\n    function createTweet(string memory content) public {\r\n        Tweet storage newTweet = tweets.push();  // Push an empty struct to the array\r\n        newTweet.id = nextTweetId;\r\n        newTweet.author = msg.sender;\r\n        newTweet.content = content;\r\n        newTweet.isProposition = false;\r\n        newTweet.totalVotes = 0; \r\n        emit TweetCreated(nextTweetId, msg.sender, content);\r\n        nextTweetId++;\r\n    }\r\n\r\n    function updateTweet(uint tweetId, string memory newContent) public {\r\n        require(tweets[tweetId - 1].author == msg.sender, \"Only the author can update the tweet.\");\r\n        tweets[tweetId - 1].content = newContent;\r\n        emit TweetUpdated(tweetId, newContent);\r\n    }\r\n\r\n    function deleteTweet(uint tweetId) public {\r\n        require(tweets[tweetId - 1].author == msg.sender, \"Only the author can delete the tweet.\");\r\n        delete tweets[tweetId - 1];\r\n        emit TweetDeleted(tweetId);\r\n    }\r\n\r\n    function startProposition(uint tweetId) public {\r\n        require(tweets[tweetId - 1].author == msg.sender, \"Only the author can start a proposition.\");\r\n        tweets[tweetId - 1].isProposition = true;\r\n        emit PropositionStarted(tweetId);\r\n    }\r\n\r\n    function voteOnTweet(uint tweetId, bool vote, uint role) public payable {\r\n        require(tweets[tweetId - 1].isProposition, \"This tweet is not a proposition.\");\r\n        require(!tweets[tweetId - 1].hasVoted[msg.sender], \"You have already voted on this tweet.\");\r\n        require(msg.value > 0, \"You must stake some amount of ether to vote.\");\r\n        require(role == 1 || role == 2, \"Invalid role: use 1 for voter, 2 for certifier.\");\r\n\r\n        tweets[tweetId - 1].hasVoted[msg.sender] = true;\r\n        tweets[tweetId - 1].stakes[msg.sender] = msg.value;\r\n        tweets[tweetId - 1].totalVotes++;\r\n\r\n        votes[tweetId].push(Vote(msg.sender, vote, role, msg.value));\r\n        emit Voted(tweetId, msg.sender, vote, role, msg.value);\r\n    }\r\n}",
  "sourcePath": "C:\\Users\\Admin\\Desktop\\is4302-project\\contracts\\TwitterX.sol",
  "compiler": {
    "name": "solc",
    "version": "0.8.0+commit.c7dfd78e.Emscripten.clang"
  },
  "schemaVersion": "3.4.16",
  "updatedAt": "2024-04-19T07:09:49.188Z",
  "networkType": "ethereum",
  "devdoc": {
    "kind": "dev",
    "methods": {},
    "version": 1
  },
  "userdoc": {
    "kind": "user",
    "methods": {},
    "version": 1
  }
}