{
  "contractName": "TwitterX",
  "abi": [
    {
      "anonymous": false,
      "inputs": [
        {
          "indexed": false,
          "internalType": "uint256",
          "name": "tweetId",
          "type": "uint256"
        }
      ],
      "name": "PropositionStarted",
      "type": "event"
    },
    {
      "anonymous": false,
      "inputs": [
        {
          "indexed": false,
          "internalType": "uint256",
          "name": "tweetId",
          "type": "uint256"
        },
        {
          "indexed": false,
          "internalType": "address",
          "name": "author",
          "type": "address"
        },
        {
          "indexed": false,
          "internalType": "string",
          "name": "content",
          "type": "string"
        }
      ],
      "name": "TweetCreated",
      "type": "event"
    },
    {
      "anonymous": false,
      "inputs": [
        {
          "indexed": false,
          "internalType": "uint256",
          "name": "tweetId",
          "type": "uint256"
        }
      ],
      "name": "TweetDeleted",
      "type": "event"
    },
    {
      "anonymous": false,
      "inputs": [
        {
          "indexed": false,
          "internalType": "uint256",
          "name": "tweetId",
          "type": "uint256"
        },
        {
          "indexed": false,
          "internalType": "string",
          "name": "newContent",
          "type": "string"
        }
      ],
      "name": "TweetUpdated",
      "type": "event"
    },
    {
      "anonymous": false,
      "inputs": [
        {
          "indexed": false,
          "internalType": "uint256",
          "name": "tweetId",
          "type": "uint256"
        },
        {
          "indexed": false,
          "internalType": "address",
          "name": "voter",
          "type": "address"
        },
        {
          "indexed": false,
          "internalType": "bool",
          "name": "vote",
          "type": "bool"
        },
        {
          "indexed": false,
          "internalType": "uint256",
          "name": "role",
          "type": "uint256"
        },
        {
          "indexed": false,
          "internalType": "uint256",
          "name": "stake",
          "type": "uint256"
        }
      ],
      "name": "Voted",
      "type": "event"
    },
    {
      "inputs": [],
      "name": "nextTweetId",
      "outputs": [
        {
          "internalType": "uint256",
          "name": "",
          "type": "uint256"
        }
      ],
      "stateMutability": "view",
      "type": "function",
      "constant": true
    },
    {
      "inputs": [
        {
          "internalType": "uint256",
          "name": "",
          "type": "uint256"
        }
      ],
      "name": "tweets",
      "outputs": [
        {
          "internalType": "uint256",
          "name": "id",
          "type": "uint256"
        },
        {
          "internalType": "address",
          "name": "author",
          "type": "address"
        },
        {
          "internalType": "string",
          "name": "content",
          "type": "string"
        },
        {
          "internalType": "bool",
          "name": "isProposition",
          "type": "bool"
        },
        {
          "internalType": "uint256",
          "name": "totalVotes",
          "type": "uint256"
        }
      ],
      "stateMutability": "view",
      "type": "function",
      "constant": true
    },
    {
      "inputs": [
        {
          "internalType": "uint256",
          "name": "",
          "type": "uint256"
        },
        {
          "internalType": "uint256",
          "name": "",
          "type": "uint256"
        }
      ],
      "name": "votes",
      "outputs": [
        {
          "internalType": "address",
          "name": "participant",
          "type": "address"
        },
        {
          "internalType": "bool",
          "name": "vote",
          "type": "bool"
        },
        {
          "internalType": "uint256",
          "name": "role",
          "type": "uint256"
        },
        {
          "internalType": "uint256",
          "name": "stake",
          "type": "uint256"
        }
      ],
      "stateMutability": "view",
      "type": "function",
      "constant": true
    },
    {
      "inputs": [
        {
          "internalType": "string",
          "name": "content",
          "type": "string"
        }
      ],
      "name": "createTweet",
      "outputs": [],
      "stateMutability": "nonpayable",
      "type": "function"
    },
    {
      "inputs": [
        {
          "internalType": "uint256",
          "name": "tweetId",
          "type": "uint256"
        },
        {
          "internalType": "string",
          "name": "newContent",
          "type": "string"
        }
      ],
      "name": "updateTweet",
      "outputs": [],
      "stateMutability": "nonpayable",
      "type": "function"
    },
    {
      "inputs": [
        {
          "internalType": "uint256",
          "name": "tweetId",
          "type": "uint256"
        }
      ],
      "name": "deleteTweet",
      "outputs": [],
      "stateMutability": "nonpayable",
      "type": "function"
    },
    {
      "inputs": [
        {
          "internalType": "uint256",
          "name": "tweetId",
          "type": "uint256"
        }
      ],
      "name": "getTweet",
      "outputs": [
        {
          "internalType": "string",
          "name": "",
          "type": "string"
        },
        {
          "internalType": "address",
          "name": "",
          "type": "address"
        }
      ],
      "stateMutability": "view",
      "type": "function",
      "constant": true
    }
  ],
  "bytecode": "0x6080604052600160025534801561001557600080fd5b5061104f806100256000396000f3fe608060405234801561001057600080fd5b506004361061007d5760003560e01c80638076e02b1161005b5780638076e02b146100d6578063c3ad5ecb146100f4578063c6e36a3214610125578063e8d857b0146101585761007d565b80635775912a146100825780637c0aa77a1461009e5780637c9cd2bc146100ba575b600080fd5b61009c60048036038101906100979190610a2b565b61018c565b005b6100b860048036038101906100b39190610a54565b61035d565b005b6100d460048036038101906100cf91906109ea565b6104eb565b005b6100de6105f5565b6040516100eb9190610ccb565b60405180910390f35b61010e60048036038101906101099190610a2b565b6105fb565b60405161011c929190610c5b565b60405180910390f35b61013f600480360381019061013a9190610aa8565b610715565b60405161014f9493929190610c16565b60405180910390f35b610172600480360381019061016d9190610a2b565b61078f565b604051610183959493929190610d24565b60405180910390f35b3373ffffffffffffffffffffffffffffffffffffffff1660006001836101b29190610e2b565b815481106101e9577f4e487b7100000000000000000000000000000000000000000000000000000000600052603260045260246000fd5b906000526020600020906007020160010160009054906101000a900473ffffffffffffffffffffffffffffffffffffffff1673ffffffffffffffffffffffffffffffffffffffff1614610271576040517f08c379a000000000000000000000000000000000000000000000000000000000815260040161026890610cab565b60405180910390fd5b60006001826102809190610e2b565b815481106102b7577f4e487b7100000000000000000000000000000000000000000000000000000000600052603260045260246000fd5b90600052602060002090600702016000808201600090556001820160006101000a81549073ffffffffffffffffffffffffffffffffffffffff0219169055600282016000610305919061088a565b6003820160006101000a81549060ff0219169055600482016000905550507fcff984d3d6983751ef01f1bad6665f0a9ab887ed70e453a3e9d01009d82c9fd1816040516103529190610ccb565b60405180910390a150565b3373ffffffffffffffffffffffffffffffffffffffff1660006001846103839190610e2b565b815481106103ba577f4e487b7100000000000000000000000000000000000000000000000000000000600052603260045260246000fd5b906000526020600020906007020160010160009054906101000a900473ffffffffffffffffffffffffffffffffffffffff1673ffffffffffffffffffffffffffffffffffffffff1614610442576040517f08c379a000000000000000000000000000000000000000000000000000000000815260040161043990610c8b565b60405180910390fd5b8060006001846104529190610e2b565b81548110610489577f4e487b7100000000000000000000000000000000000000000000000000000000600052603260045260246000fd5b906000526020600020906007020160020190805190602001906104ad9291906108ca565b507f6ebd612dea8bfa08e83c4eb25ef328abb2047c26ad069e2f79820599155225e882826040516104df929190610d7e565b60405180910390a15050565b60008060018160018154018082558091505003906000526020600020906007020190506002548160000181905550338160010160006101000a81548173ffffffffffffffffffffffffffffffffffffffff021916908373ffffffffffffffffffffffffffffffffffffffff160217905550818160020190805190602001906105749291906108ca565b5060008160030160006101000a81548160ff021916908315150217905550600081600401819055507f5b04dbcff53dfd77771f59e7ba56ec837ac5325729cf7f1dd0ed4aef082a6aab60025433846040516105d193929190610ce6565b60405180910390a1600260008154809291906105ec90610f1b565b91905055505050565b60025481565b6060600080600060018561060f9190610e2b565b81548110610646577f4e487b7100000000000000000000000000000000000000000000000000000000600052603260045260246000fd5b90600052602060002090600702019050806002018160010160009054906101000a900473ffffffffffffffffffffffffffffffffffffffff1681805461068b90610ee9565b80601f01602080910402602001604051908101604052809291908181526020018280546106b790610ee9565b80156107045780601f106106d957610100808354040283529160200191610704565b820191906000526020600020905b8154815290600101906020018083116106e757829003601f168201915b505050505091509250925050915091565b6001602052816000526040600020818154811061073157600080fd5b9060005260206000209060030201600091509150508060000160009054906101000a900473ffffffffffffffffffffffffffffffffffffffff16908060000160149054906101000a900460ff16908060010154908060020154905084565b6000818154811061079f57600080fd5b90600052602060002090600702016000915090508060000154908060010160009054906101000a900473ffffffffffffffffffffffffffffffffffffffff16908060020180546107ee90610ee9565b80601f016020809104026020016040519081016040528092919081815260200182805461081a90610ee9565b80156108675780601f1061083c57610100808354040283529160200191610867565b820191906000526020600020905b81548152906001019060200180831161084a57829003601f168201915b5050505050908060030160009054906101000a900460ff16908060040154905085565b50805461089690610ee9565b6000825580601f106108a857506108c7565b601f0160209004906000526020600020908101906108c69190610950565b5b50565b8280546108d690610ee9565b90600052602060002090601f0160209004810192826108f8576000855561093f565b82601f1061091157805160ff191683800117855561093f565b8280016001018555821561093f579182015b8281111561093e578251825591602001919060010190610923565b5b50905061094c9190610950565b5090565b5b80821115610969576000816000905550600101610951565b5090565b600061098061097b84610ddf565b610dae565b90508281526020810184848401111561099857600080fd5b6109a3848285610ea7565b509392505050565b600082601f8301126109bc57600080fd5b81356109cc84826020860161096d565b91505092915050565b6000813590506109e481611002565b92915050565b6000602082840312156109fc57600080fd5b600082013567ffffffffffffffff811115610a1657600080fd5b610a22848285016109ab565b91505092915050565b600060208284031215610a3d57600080fd5b6000610a4b848285016109d5565b91505092915050565b60008060408385031215610a6757600080fd5b6000610a75858286016109d5565b925050602083013567ffffffffffffffff811115610a9257600080fd5b610a9e858286016109ab565b9150509250929050565b60008060408385031215610abb57600080fd5b6000610ac9858286016109d5565b9250506020610ada858286016109d5565b9150509250929050565b610aed81610e5f565b82525050565b610afc81610e71565b82525050565b6000610b0d82610e0f565b610b178185610e1a565b9350610b27818560208601610eb6565b610b3081610ff1565b840191505092915050565b6000610b48602583610e1a565b91507f4f6e6c792074686520617574686f722063616e2075706461746520746865207460008301527f776565742e0000000000000000000000000000000000000000000000000000006020830152604082019050919050565b6000610bae602583610e1a565b91507f4f6e6c792074686520617574686f722063616e2064656c65746520746865207460008301527f776565742e0000000000000000000000000000000000000000000000000000006020830152604082019050919050565b610c1081610e9d565b82525050565b6000608082019050610c2b6000830187610ae4565b610c386020830186610af3565b610c456040830185610c07565b610c526060830184610c07565b95945050505050565b60006040820190508181036000830152610c758185610b02565b9050610c846020830184610ae4565b9392505050565b60006020820190508181036000830152610ca481610b3b565b9050919050565b60006020820190508181036000830152610cc481610ba1565b9050919050565b6000602082019050610ce06000830184610c07565b92915050565b6000606082019050610cfb6000830186610c07565b610d086020830185610ae4565b8181036040830152610d1a8184610b02565b9050949350505050565b600060a082019050610d396000830188610c07565b610d466020830187610ae4565b8181036040830152610d588186610b02565b9050610d676060830185610af3565b610d746080830184610c07565b9695505050505050565b6000604082019050610d936000830185610c07565b8181036020830152610da58184610b02565b90509392505050565b6000604051905081810181811067ffffffffffffffff82111715610dd557610dd4610fc2565b5b8060405250919050565b600067ffffffffffffffff821115610dfa57610df9610fc2565b5b601f19601f8301169050602081019050919050565b600081519050919050565b600082825260208201905092915050565b6000610e3682610e9d565b9150610e4183610e9d565b925082821015610e5457610e53610f64565b5b828203905092915050565b6000610e6a82610e7d565b9050919050565b60008115159050919050565b600073ffffffffffffffffffffffffffffffffffffffff82169050919050565b6000819050919050565b82818337600083830152505050565b60005b83811015610ed4578082015181840152602081019050610eb9565b83811115610ee3576000848401525b50505050565b60006002820490506001821680610f0157607f821691505b60208210811415610f1557610f14610f93565b5b50919050565b6000610f2682610e9d565b91507fffffffffffffffffffffffffffffffffffffffffffffffffffffffffffffffff821415610f5957610f58610f64565b5b600182019050919050565b7f4e487b7100000000000000000000000000000000000000000000000000000000600052601160045260246000fd5b7f4e487b7100000000000000000000000000000000000000000000000000000000600052602260045260246000fd5b7f4e487b7100000000000000000000000000000000000000000000000000000000600052604160045260246000fd5b6000601f19601f8301169050919050565b61100b81610e9d565b811461101657600080fd5b5056fea264697066735822122051812acdfcd25d03040387247552d49d4b4a5f07f1d4aace3beca3cd49e5881464736f6c63430008000033",
  "immutableReferences": {},
  "source": "// SPDX-License-Identifier: MIT\r\npragma solidity ^0.8.0;\r\n\r\ncontract TwitterX {\r\n    struct Tweet {\r\n        uint id;\r\n        address author;\r\n        string content;\r\n        bool isProposition;\r\n        uint totalVotes;\r\n        mapping(address => uint) stakes;\r\n        mapping(address => bool) hasVoted;\r\n    }\r\n\r\n    struct Vote {\r\n        address participant;\r\n        bool vote; // true for yes, false for no\r\n        uint role; // 1 for voter, 2 for certifier\r\n        uint stake;\r\n    }\r\n\r\n    Tweet[] public tweets;\r\n    mapping(uint => Vote[]) public votes; // mapping from tweet ID to list of votes\r\n\r\n    uint public nextTweetId = 1;\r\n\r\n    event TweetCreated(uint tweetId, address author, string content);\r\n    event TweetUpdated(uint tweetId, string newContent);\r\n    event TweetDeleted(uint tweetId);\r\n    event PropositionStarted(uint tweetId);\r\n    event Voted(uint tweetId, address voter, bool vote, uint role, uint stake);\r\n\r\n    function createTweet(string memory content) public {\r\n        Tweet storage newTweet = tweets.push();  // Push an empty struct to the array\r\n        newTweet.id = nextTweetId;\r\n        newTweet.author = msg.sender;\r\n        newTweet.content = content;\r\n        newTweet.isProposition = false;\r\n        newTweet.totalVotes = 0; \r\n        emit TweetCreated(nextTweetId, msg.sender, content);\r\n        nextTweetId++;\r\n    }\r\n\r\n    function updateTweet(uint tweetId, string memory newContent) public {\r\n        require(tweets[tweetId - 1].author == msg.sender, \"Only the author can update the tweet.\");\r\n        tweets[tweetId - 1].content = newContent;\r\n        emit TweetUpdated(tweetId, newContent);\r\n    }\r\n\r\n    function deleteTweet(uint tweetId) public {\r\n        require(tweets[tweetId - 1].author == msg.sender, \"Only the author can delete the tweet.\");\r\n        delete tweets[tweetId - 1];\r\n        emit TweetDeleted(tweetId);\r\n    }\r\n\r\n    function getTweet(uint tweetId) public view returns (string memory, address) {\r\n        Tweet storage tweet = tweets[tweetId - 1];\r\n        return (tweet.content, tweet.author);\r\n    }\r\n\r\n}",
  "sourcePath": "C:\\Users\\zenyew\\OneDrive\\Documents\\NUS\\Year4Sem2\\IS4302\\is4302-project\\contracts\\TwitterX.sol",
  "compiler": {
    "name": "solc",
    "version": "0.8.0+commit.c7dfd78e.Emscripten.clang"
  },
  "schemaVersion": "3.4.16",
  "updatedAt": "2024-04-19T20:29:18.936Z",
  "networkType": "ethereum",
  "devdoc": {
    "kind": "dev",
    "methods": {},
    "version": 1
  },
  "userdoc": {
    "kind": "user",
    "methods": {},
    "version": 1
  }
}