{
  "contractName": "User",
  "abi": [
    {
      "anonymous": false,
      "inputs": [
        {
          "indexed": false,
          "internalType": "string",
          "name": "username",
          "type": "string"
        },
        {
          "indexed": false,
          "internalType": "enum User.UserType",
          "name": "userType",
          "type": "uint8"
        },
        {
          "indexed": false,
          "internalType": "address",
          "name": "owner",
          "type": "address"
        }
      ],
      "name": "userCreated",
      "type": "event"
    },
    {
      "anonymous": false,
      "inputs": [
        {
          "indexed": false,
          "internalType": "address",
          "name": "owner",
          "type": "address"
        }
      ],
      "name": "userDeleted",
      "type": "event"
    },
    {
      "anonymous": false,
      "inputs": [
        {
          "indexed": false,
          "internalType": "string",
          "name": "userType",
          "type": "string"
        },
        {
          "indexed": false,
          "internalType": "address",
          "name": "owner",
          "type": "address"
        }
      ],
      "name": "userUpdated",
      "type": "event"
    },
    {
      "inputs": [],
      "name": "numUsers",
      "outputs": [
        {
          "internalType": "uint256",
          "name": "",
          "type": "uint256"
        }
      ],
      "stateMutability": "view",
      "type": "function",
      "constant": true
    },
    {
      "inputs": [
        {
          "internalType": "string",
          "name": "username",
          "type": "string"
        }
      ],
      "name": "createUser",
      "outputs": [],
      "stateMutability": "nonpayable",
      "type": "function"
    },
    {
      "inputs": [],
      "name": "deleteUser",
      "outputs": [],
      "stateMutability": "nonpayable",
      "type": "function"
    },
    {
      "inputs": [
        {
          "internalType": "string",
          "name": "userType",
          "type": "string"
        }
      ],
      "name": "updateUser",
      "outputs": [],
      "stateMutability": "nonpayable",
      "type": "function"
    },
    {
      "inputs": [],
      "name": "isValidUser",
      "outputs": [
        {
          "internalType": "bool",
          "name": "",
          "type": "bool"
        }
      ],
      "stateMutability": "view",
      "type": "function",
      "constant": true
    }
  ],
  "bytecode": "0x6080604052600060015534801561001557600080fd5b50610d41806100256000396000f3fe608060405234801561001057600080fd5b50600436106100575760003560e01c8063026ff05e1461005c5780630b4f12f61461006657806319a50f4914610082578063507ffba5146100a0578063af949df9146100bc575b600080fd5b6100646100da565b005b610080600480360381019061007b91906107a6565b610202565b005b61008a6103c0565b6040516100979190610a5d565b60405180910390f35b6100ba60048036038101906100b591906107a6565b6103c6565b005b6100c4610645565b6040516100d19190610994565b60405180910390f35b600115156000803373ffffffffffffffffffffffffffffffffffffffff1673ffffffffffffffffffffffffffffffffffffffff16815260200190815260200160002060010160159054906101000a900460ff1615151461016f576040517f08c379a000000000000000000000000000000000000000000000000000000000815260040161016690610a3d565b60405180910390fd5b60008060003373ffffffffffffffffffffffffffffffffffffffff1673ffffffffffffffffffffffffffffffffffffffff16815260200190815260200160002060010160156101000a81548160ff0219169083151502179055507fc21b9cfcceff9f2d82efde7cd64d3fe7bfd7f14b9b0020ed54eb6ae56056e9ac336040516101f89190610979565b60405180910390a1565b600115156000803373ffffffffffffffffffffffffffffffffffffffff1673ffffffffffffffffffffffffffffffffffffffff16815260200190815260200160002060010160159054906101000a900460ff16151514610297576040517f08c379a000000000000000000000000000000000000000000000000000000000815260040161028e90610a3d565b60405180910390fd5b6000600190506040516020016102ac90610964565b60405160208183030381529060405280519060200120826040516020016102d3919061094d565b6040516020818303038152906040528051906020012014156102f457600090505b806000803373ffffffffffffffffffffffffffffffffffffffff1673ffffffffffffffffffffffffffffffffffffffff16815260200190815260200160002060010160006101000a81548160ff0219169083600181111561037e577f4e487b7100000000000000000000000000000000000000000000000000000000600052602160045260246000fd5b02179055507f48644d195bd68c9be4e8e37e48a7d94da046b2882921ec1eae4072a30454a47882336040516103b49291906109af565b60405180910390a15050565b60015481565b600015156000803373ffffffffffffffffffffffffffffffffffffffff1673ffffffffffffffffffffffffffffffffffffffff16815260200190815260200160002060010160159054906101000a900460ff1615151461045b576040517f08c379a000000000000000000000000000000000000000000000000000000000815260040161045290610a1d565b60405180910390fd5b600060405180608001604052808381526020016001808111156104a7577f4e487b7100000000000000000000000000000000000000000000000000000000600052602160045260246000fd5b81526020013373ffffffffffffffffffffffffffffffffffffffff168152602001600115158152509050806000803373ffffffffffffffffffffffffffffffffffffffff1673ffffffffffffffffffffffffffffffffffffffff168152602001908152602001600020600082015181600001908051906020019061052c92919061069b565b5060208201518160010160006101000a81548160ff0219169083600181111561057e577f4e487b7100000000000000000000000000000000000000000000000000000000600052602160045260246000fd5b021790555060408201518160010160016101000a81548173ffffffffffffffffffffffffffffffffffffffff021916908373ffffffffffffffffffffffffffffffffffffffff16021790555060608201518160010160156101000a81548160ff0219169083151502179055509050506001600081548092919061060090610be1565b91905055507fc6e62447c06852ac545f06221003b87db5369b8d605c0b84c49b0b1985afb55682600133604051610639939291906109df565b60405180910390a15050565b60008060003373ffffffffffffffffffffffffffffffffffffffff1673ffffffffffffffffffffffffffffffffffffffff16815260200190815260200160002060010160159054906101000a900460ff16905090565b8280546106a790610baf565b90600052602060002090601f0160209004810192826106c95760008555610710565b82601f106106e257805160ff1916838001178555610710565b82800160010185558215610710579182015b8281111561070f5782518255916020019190600101906106f4565b5b50905061071d9190610721565b5090565b5b8082111561073a576000816000905550600101610722565b5090565b600061075161074c84610aa9565b610a78565b90508281526020810184848401111561076957600080fd5b610774848285610b6d565b509392505050565b600082601f83011261078d57600080fd5b813561079d84826020860161073e565b91505092915050565b6000602082840312156107b857600080fd5b600082013567ffffffffffffffff8111156107d257600080fd5b6107de8482850161077c565b91505092915050565b6107f081610b00565b82525050565b6107ff81610b12565b82525050565b61080e81610b5b565b82525050565b600061081f82610ad9565b6108298185610ae4565b9350610839818560208601610b7c565b61084281610ce6565b840191505092915050565b600061085882610ad9565b6108628185610af5565b9350610872818560208601610b7c565b80840191505092915050565b600061088b601483610ae4565b91507f5573657220616c726561647920657869737473210000000000000000000000006000830152602082019050919050565b60006108cb601483610ae4565b91507f5573657220646f6573206e6f74206578697374210000000000000000000000006000830152602082019050919050565b600061090b600983610af5565b91507f43657274696669657200000000000000000000000000000000000000000000006000830152600982019050919050565b61094781610b51565b82525050565b6000610959828461084d565b915081905092915050565b600061096f826108fe565b9150819050919050565b600060208201905061098e60008301846107e7565b92915050565b60006020820190506109a960008301846107f6565b92915050565b600060408201905081810360008301526109c98185610814565b90506109d860208301846107e7565b9392505050565b600060608201905081810360008301526109f98186610814565b9050610a086020830185610805565b610a1560408301846107e7565b949350505050565b60006020820190508181036000830152610a368161087e565b9050919050565b60006020820190508181036000830152610a56816108be565b9050919050565b6000602082019050610a72600083018461093e565b92915050565b6000604051905081810181811067ffffffffffffffff82111715610a9f57610a9e610cb7565b5b8060405250919050565b600067ffffffffffffffff821115610ac457610ac3610cb7565b5b601f19601f8301169050602081019050919050565b600081519050919050565b600082825260208201905092915050565b600081905092915050565b6000610b0b82610b31565b9050919050565b60008115159050919050565b6000819050610b2c82610cf7565b919050565b600073ffffffffffffffffffffffffffffffffffffffff82169050919050565b6000819050919050565b6000610b6682610b1e565b9050919050565b82818337600083830152505050565b60005b83811015610b9a578082015181840152602081019050610b7f565b83811115610ba9576000848401525b50505050565b60006002820490506001821680610bc757607f821691505b60208210811415610bdb57610bda610c88565b5b50919050565b6000610bec82610b51565b91507fffffffffffffffffffffffffffffffffffffffffffffffffffffffffffffffff821415610c1f57610c1e610c2a565b5b600182019050919050565b7f4e487b7100000000000000000000000000000000000000000000000000000000600052601160045260246000fd5b7f4e487b7100000000000000000000000000000000000000000000000000000000600052602160045260246000fd5b7f4e487b7100000000000000000000000000000000000000000000000000000000600052602260045260246000fd5b7f4e487b7100000000000000000000000000000000000000000000000000000000600052604160045260246000fd5b6000601f19601f8301169050919050565b60028110610d0857610d07610c59565b5b5056fea264697066735822122081ab3ad99874c4fe75d14531a0174c5839888ca016253460d77d95c96aa8363464736f6c63430008000033",
  "immutableReferences": {},
  "source": "// SPDX-License-Identifier: UNLICENSED\r\npragma solidity ^0.8.0;\r\n\r\ncontract User {\r\n    enum UserType {\r\n        Certifier,\r\n        Voter\r\n    }\r\n\r\n    struct user {\r\n        string username;\r\n        UserType userType;\r\n        address owner;\r\n        bool created;\r\n    }\r\n\r\n    mapping(address => user) userList;\r\n\r\n    event userCreated(string username, UserType userType, address owner);\r\n    event userUpdated(string userType, address owner);\r\n    event userDeleted(address owner);\r\n\r\n    uint256 public numUsers = 0;\r\n\r\n    modifier validUser() {\r\n        require(userList[msg.sender].created == true, \"User does not exist!\");\r\n        _;\r\n    }\r\n\r\n    function createUser(string memory username) external {\r\n        require(userList[msg.sender].created == false, \"User already exists!\");\r\n        user memory newUser = user(username, UserType.Voter, msg.sender, true);\r\n        userList[msg.sender] = newUser;\r\n        numUsers++;\r\n\r\n        emit userCreated(username, UserType.Voter, msg.sender);\r\n    }\r\n\r\n    function deleteUser() external validUser {\r\n        userList[msg.sender].created = false;\r\n\r\n        emit userDeleted(msg.sender);\r\n    }\r\n\r\n    function updateUser(string memory userType) external validUser {\r\n        UserType newUserType = UserType.Voter;\r\n        if (\r\n            keccak256(abi.encodePacked(userType)) ==\r\n            keccak256(abi.encodePacked(\"Certifier\"))\r\n        ) {\r\n            newUserType = UserType.Certifier;\r\n        }\r\n        userList[msg.sender].userType = newUserType;\r\n\r\n        emit userUpdated(userType, msg.sender);\r\n    }\r\n\r\n    function isValidUser() public view returns (bool) {\r\n        return userList[msg.sender].created;\r\n    }\r\n}\r\n",
  "sourcePath": "C:\\Users\\Admin\\Desktop\\is4302-project\\contracts\\User.sol",
  "compiler": {
    "name": "solc",
    "version": "0.8.0+commit.c7dfd78e.Emscripten.clang"
  },
  "schemaVersion": "3.4.16",
  "updatedAt": "2024-04-19T08:43:29.465Z",
  "networkType": "ethereum",
  "devdoc": {
    "kind": "dev",
    "methods": {},
    "version": 1
  },
  "userdoc": {
    "kind": "user",
    "methods": {},
    "version": 1
  }
}